:020000040801F1
:100000000000012029590208493401084B34010835
:100010004D3401084F34010851340108000000003C
:100020000000000000000000000000005334010840
:100030005534010800000000573401085934010804
:100040007159020871590208715902087159020860
:100050007159020871590208715902087159020850
:100060007159020871590208715902087159020840
:100070007159020871590208715902087159020830
:100080007159020871590208715902087159020820
:100090006134010871590208715902087159020846
:1000A0007159020841530208715902087159020836
:1000B000295202087159020871590208715902083F
:1000C00071590208715902087159020871590208E0
:1000D000715902084D520208B952020885470108B9
:1000E00071590208715902087159020871590208C0
:1000F00071590208715902087159020871590208B0
:10010000715902087159020871590208715902089F
:1001100071590208715902087159020811EC01085D
:10012000715902087159020871590208715902087F
:1001400010B5054C237833B9044B13B10448AFF311
:1001500000800123237010BD8021002000000000DA
:10016000785E030808B5034B1BB103490348AFF39E
:10017000008008BD0000000084210020785E030894
:1001800081F0004102E000BF83F0004330B54FEA48
:1001900041044FEA430594EA050F08BF90EA020FB5
:1001A0001FBF54EA000C55EA020C7FEA645C7FEA48
:1001B000655C00F0E2804FEA5454D4EB5555B8BF6B
:1001C0006D420CDD2C4480EA020281EA030382EADC
:1001D000000083EA010180EA020281EA0303362D6E
:1001E00088BF30BD11F0004F4FEA01314FF4801C41
:1001F0004CEA113102D0404261EB410113F0004F53
:100200004FEA03334CEA133302D0524263EB430309
:1002100094EA050F00F0A780A4F10104D5F1200EA7
:100220000DDB02FA0EFC22FA05F2801841F1000102
:1002300003FA0EF2801843FA05F359410EE0A5F1D6
:1002400020050EF1200E012A03FA0EFC28BF4CF007
:10025000020C43FA05F3C01851EBE37101F00045BD
:1002600007D54FF0000EDCF1000C7EEB00006EEBCA
:100270000101B1F5801F1BD3B1F5001F0CD3490854
:100280005FEA30004FEA3C0C04F101044FEA4452AB
:1002900012F5800F80F09A80BCF1004F08BF5FEA32
:1002A000500C50F1000041EB045141EA050130BD12
:1002B0005FEA4C0C404141EB0101013C28BFB1F524
:1002C000801FE9D291F0000F04BF01460020B1FA6F
:1002D00081F308BF2033A3F10B03B3F120020CDA42
:1002E0000C3208DD02F1140CC2F10C0201FA0CF020
:1002F00021FA02F10CE002F11402D8BFC2F1200C85
:1003000001FA02F120FA0CFCDCBF41EA0C0190403A
:10031000E41AA2BF01EB0451294330BD6FEA040483
:100320001F3C1CDA0C340EDC04F11404C4F120026E
:1003300020FA04F001FA02F340EA030021FA04F380
:1003400045EA030130BDC4F10C04C4F1200220FAD7
:1003500002F001FA04F340EA0300294630BD21FA15
:1003600004F0294630BD94F0000F83F4801306BFDB
:1003700081F480110134013D4EE77FEA645C18BFCF
:100380007FEA655C29D094EA050F08BF90EA020F66
:1003900005D054EA000C04BF1946104630BD91EA5E
:1003A000030F1EBF0021002030BD5FEA545C05D161
:1003B0004000494128BF41F0004130BD14F58004A0
:1003C0003CBF01F5801130BD01F0004545F0FE4114
:1003D00041F470014FF0000030BD7FEA645C1ABF49
:1003E000194610467FEA655C1CBF0B46024650EA80
:1003F000013406BF52EA033591EA030F41F40021AC
:1004000030BD00BF90F0000F04BF0021704730B531
:100410004FF4806404F132044FF000054FF0000106
:1004200050E700BF90F0000F04BF0021704730B5C7
:100430004FF4806404F1320410F0004548BF40429C
:100440004FF000013EE700BF42004FEAE2014FEAF1
:1004500031014FEA02701FBF12F07F4393F07F4FCC
:1004600081F06051704732F07F4208BF704793F0CF
:100470007F4F04BF41F40021704730B54FF46074E2
:1004800001F0004521F000411CE700BF50EA0102E5
:1004900008BF704730B54FF000050AE050EA01028E
:1004A00008BF704730B511F0004502D5404261EBFE
:1004B00041014FF4806404F132045FEA915C3FF43F
:1004C000D8AE4FF003025FEADC0C18BF03325FEADC
:1004D000DC0C18BF033202EBDC02C2F1200300FA8D
:1004E00003FC20FA02F001FA03FE40EA0E0021FAB2
:1004F00002F11444BDE600BF70B54FF0FF0C4CF4A0
:10050000E06C1CEA11541DBF1CEA135594EA0C0F51
:1005100095EA0C0F00F0DEF82C4481EA030621EA8C
:100520004C5123EA4C5350EA013518BF52EA0335C7
:1005300041F4801143F4801338D0A0FB02CE4FF079
:100540000005E1FB02E506F00042E0FB03E54FF0A9
:100550000006E1FB03569CF0000F18BF4EF0010EA1
:10056000A4F1FF04B6F5007F64F5407404D25FEA9D
:100570004E0E6D4146EB060642EAC62141EA555150
:100580004FEAC52040EA5E504FEACE2EB4F1FD0C92
:1005900088BFBCF5E06F1ED8BEF1004F08BF5FEA10
:1005A000500E50F1000041EB045170BD06F00046C2
:1005B00046EA010140EA020081EA0301B4EB5C046F
:1005C000C2BFD4EB0C0541EA045170BD41F4801167
:1005D0004FF0000E013C00F3AB8014F1360FDEBF8C
:1005E000002001F0004170BDC4F10004203C35DA68
:1005F0000C341BDC04F11404C4F1200500FA05F3EB
:1006000020FA04F001FA05F240EA020001F000428B
:1006100021F0004110EBD37021FA04F642EB060101
:100620005EEA430E08BF20EAD37070BDC4F10C042B
:10063000C4F1200500FA04F320FA05F001FA04F2EF
:1006400040EA020001F0004110EBD37041F10001DB
:100650005EEA430E08BF20EAD37070BDC4F12005E6
:1006600000FA05F24EEA020E20FA04F301FA05F24E
:1006700043EA020321FA04F001F0004121FA04F2F6
:1006800020EA020000EBD3705EEA430E08BF20EAC6
:10069000D37070BD94F0000F0FD101F00046400000
:1006A00041EB010111F4801F08BF013CF7D041EA82
:1006B000060195F0000F18BF704703F00046520086
:1006C00043EB030313F4801F08BF013DF7D043EA57
:1006D0000603704794EA0C0F0CEA135518BF95EA0D
:1006E0000C0F0CD050EA410618BF52EA4306D1D194
:1006F00081EA030101F000414FF0000070BD50EAB3
:10070000410606BF1046194652EA430619D094EA3C
:100710000C0F02D150EA013613D195EA0C0F05D126
:1007200052EA03361CBF104619460AD181EA03017A
:1007300001F0004141F0FE4141F470014FF0000032
:1007400070BD41F0FE4141F4780170BD70B54FF0CD
:10075000FF0C4CF4E06C1CEA11541DBF1CEA13554D
:1007600094EA0C0F95EA0C0F00F0A7F8A4EB05042F
:1007700081EA030E52EA03354FEA013100F0888026
:100780004FEA03334FF0805545EA131343EA1263EF
:100790004FEA022245EA111545EA10654FEA0026A4
:1007A0000EF000419D4208BF964244F1FD0404F55D
:1007B000407402D25B084FEA3202B61A65EB0305B9
:1007C0005B084FEA32024FF480104FF4002CB6EB76
:1007D000020E75EB030E22BFB61A754640EA0C00F6
:1007E0005B084FEA3202B6EB020E75EB030E22BF36
:1007F000B61A754640EA5C005B084FEA3202B6EB77
:10080000020E75EB030E22BFB61A754640EA9C0035
:100810005B084FEA3202B6EB020E75EB030E22BF05
:10082000B61A754640EADC0055EA060E18D04FEAC3
:10083000051545EA16754FEA06164FEAC30343EA63
:1008400052734FEAC2025FEA1C1CC0D111F4801F30
:100850000BD141EA00014FF000004FF0004CB6E729
:1008600011F4801F04BF01430020B4F1FD0C88BFC8
:10087000BCF5E06F3FF6AFAEB5EB030C04BFB6EBD3
:10088000020C5FEA500C50F1000041EB045170BDC6
:100890000EF0004E4EEA113114EB5C04C2BFD4EBF3
:1008A0000C0541EA045170BD41F480114FF0000E77
:1008B000013C90E645EA060E8DE60CEA135594EAF3
:1008C0000C0F08BF95EA0C0F3FF43BAF94EA0C0FF6
:1008D0000AD150EA01347FF434AF95EA0C0F7FF46B
:1008E00025AF104619462CE795EA0C0F06D152EABF
:1008F00003353FF4FDAE1046194622E750EA4106A3
:1009000018BF52EA43067FF4C5AE50EA41047FF4B3
:100910000DAF52EA43057FF4EBAE12E74FF0FF3C18
:1009200006E000BF4FF0010C02E000BF4FF0010CE9
:100930004DF804CD4FEA410C7FEA6C5C4FEA430C62
:1009400018BF7FEA6C5C1BD001B050EA410C0CBFB1
:1009500052EA430C91EA030F02BF90EA020F002013
:10096000704710F1000F91EA030F58BF994208BF7A
:1009700090422CBFD8176FEAE37040F00100704737
:100980004FEA410C7FEA6C5C02D150EA013C07D18E
:100990004FEA430C7FEA6C5CD6D152EA033CD3D0D9
:1009A0005DF8040B704700BF8446104662468C46D3
:1009B0001946634600E000BF01B5FFF7B7FF002806
:1009C00048BF10F1000F01BD4DF808EDFFF7F4FF2F
:1009D0000CBF012000205DF808FB00BF4DF808EDBA
:1009E000FFF7EAFF34BF012000205DF808FB00BFDD
:1009F0004DF808EDFFF7E0FF94BF012000205DF8FF
:100A000008FB00BF4DF808EDFFF7CEFF94BF0120B3
:100A100000205DF808FB00BF4DF808EDFFF7C4FFAC
:100A200034BF012000205DF808FB00BF4A0011D24E
:100A300012F5001211D20DD56FF47873B3EB625238
:100A40000ED44FEAC12343F0004343EA505323FA44
:100A500002F070474FF00000704750EA013002D1B9
:100A60004FF0FF3070474FF0000070474FEA4102EF
:100A7000B2F1E04324BFB3F5001CDCF1FE5C0DD9FC
:100A800001F0004C4FEAC0024CEA5070B2F1004F46
:100A900040EB830008BF20F00100704711F0804F49
:100AA00021D113F13872BCBF01F00040704741F40E
:100AB00080114FEA5252C2F11802C2F1200C10FA12
:100AC0000CF320FA02F018BF40F001004FEAC123F6
:100AD0004FEAD32303FA0CFC40EA0C0023FA02F39A
:100AE0004FEA4303CCE77FEA625307D150EA013370
:100AF0001EBF4FF0FE4040F44000704701F0004040
:100B000040F0FE4040F40000704700BF80F000401D
:100B100002E000BF81F0004142001FBF5FEA4103D5
:100B200092EA030F7FEA226C7FEA236C6AD04FEAD5
:100B30001262D2EB1363C1BFD2184140484041401A
:100B4000B8BF5B42192B88BF704710F0004F40F4CC
:100B5000000020F07F4018BF404211F0004F41F4E8
:100B6000000121F07F4118BF494292EA030F3FD0B4
:100B7000A2F1010241FA03FC10EB0C00C3F12003C7
:100B800001FA03F100F0004302D5494260EB400056
:100B9000B0F5000F13D3B0F1807F06D340084FEAC1
:100BA000310102F10102FE2A51D2B1F1004F40EBB6
:100BB000C25008BF20F0010040EA0300704749001E
:100BC00040EB0000013A28BFB0F5000FEDD2B0FABB
:100BD00080FCACF1080CB2EB0C0200FA0CF0AABFDE
:100BE00000EBC25052421843BCBFD040184370477C
:100BF00092F0000F81F4000106BF80F40000013282
:100C0000013BB5E74FEA41037FEA226C18BF7FEA58
:100C1000236C21D092EA030F04D092F0000F08BF9A
:100C20000846704790EA010F1CBF0020704712F081
:100C30007F4F04D1400028BF40F00040704712F1C0
:100C400000723CBF00F50000704700F0004343F025
:100C5000FE4040F4000070477FEA226216BF08465B
:100C60007FEA23630146420206BF5FEA412390EA1E
:100C7000010F40F4800070474FF0000304E000BF14
:100C800010F0004348BF40425FEA000C08BF7047C5
:100C900043F0964301464FF000001CE050EA010289
:100CA00008BF70474FF000030AE000BF50EA01029E
:100CB00008BF704711F0004302D5404261EB41018B
:100CC0005FEA010C02BF84460146002043F0B643B0
:100CD00008BFA3F18053A3F50003BCFA8CF2083AD5
:100CE000A3EBC25310DB01FA02FC634400FA02FCDE
:100CF000C2F12002BCF1004F20FA02F243EB0200E5
:100D000008BF20F00100704702F1200201FA02FC46
:100D1000C2F1200250EA4C0021FA02F243EB020039
:100D200008BF20EADC7070474FF0FF0C1CEAD0527D
:100D30001EBF1CEAD15392EA0C0F93EA0C0F6FD03E
:100D40001A4480EA010C400218BF5FEA41211ED01C
:100D50004FF0006343EA501043EA5111A0FB013108
:100D60000CF00040B1F5000F3EBF490041EAD371DD
:100D70005B0040EA010062F17F02FD2A1DD8B3F159
:100D8000004F40EBC25008BF20F00100704790F0C8
:100D9000000F0CF0004C08BF49024CEA502040EA1A
:100DA00051207F3AC2BFD2F1FF0340EAC2507047E0
:100DB00040F400004FF00003013A5DDC12F1190F1E
:100DC000DCBF00F000407047C2F10002410021FA90
:100DD00002F1C2F1200200FA02FC5FEA310040F1A8
:100DE000000053EA4C0308BF20EADC70704792F021
:100DF000000F00F0004C02BF400010F4000F013A59
:100E0000F9D040EA0C0093F0000F01F0004C02BF53
:100E1000490011F4000F013BF9D041EA0C018FE7C2
:100E20000CEAD15392EA0C0F18BF93EA0C0F0AD0C8
:100E300030F0004C18BF31F0004CD8D180EA0100EE
:100E400000F00040704790F0000F17BF90F0004F87
:100E5000084691F0000F91F0004F14D092EA0C0F69
:100E600001D142020FD193EA0C0F03D14B0218BFFC
:100E7000084608D180EA010000F0004040F0FE4042
:100E800040F40000704740F0FE4040F440007047DE
:100E90004FF0FF0C1CEAD0521EBF1CEAD15392EA5D
:100EA0000C0F93EA0C0F69D0A2EB030280EA010C4D
:100EB00049024FEA402037D04FF0805343EA1111E6
:100EC00043EA10130CF000408B4238BF5B0042F144
:100ED0007D024FF4000C8B4224BF5B1A40EA0C00E9
:100EE000B3EB510F24BFA3EB510340EA5C00B3EB1B
:100EF000910F24BFA3EB910340EA9C00B3EBD10F09
:100F000024BFA3EBD10340EADC001B0118BF5FEA5A
:100F10001C1CE0D1FD2A3FF650AF8B4240EBC25083
:100F200008BF20F0010070470CF0004C4CEA502044
:100F30007F32C2BFD2F1FF0340EAC250704740F493
:100F400000004FF00003013A37E792F0000F00F085
:100F5000004C02BF400010F4000F013AF9D040EA03
:100F60000C0093F0000F01F0004C02BF490011F497
:100F7000000F013BF9D041EA0C0195E70CEAD1538F
:100F800092EA0C0F08D142027FF47DAF93EA0C0F76
:100F90007FF470AF084676E793EA0C0F04D14B025A
:100FA0003FF44CAF08466EE730F0004C18BF31F00C
:100FB000004CCAD130F000427FF45CAF31F0004306
:100FC0007FF43CAF5FE700BF4FF0FF3C06E000BF9F
:100FD0004FF0010C02E000BF4FF0010C4DF804CDC2
:100FE0004FEA40024FEA41037FEA226C18BF7FEAD2
:100FF000236C11D001B052EA530C18BF90EA010FD4
:1010000058BFB2EB030088BFC81738BF6FEAE17062
:1010100018BF40F0010070477FEA226C02D15FEAFE
:10102000402C05D17FEA236CE4D15FEA412CE1D06A
:101030005DF8040B704700BF844608466146FFE731
:101040000FB5FFF7C9FF002848BF10F1000F0FBD13
:101050004DF808EDFFF7F4FF0CBF012000205DF80C
:1010600008FB00BF4DF808EDFFF7EAFF34BF012091
:1010700000205DF808FB00BF4DF808EDFFF7E0FF2A
:1010800094BF012000205DF808FB00BF4DF808ED7B
:10109000FFF7D2FF94BF012000205DF808FB00BFDE
:1010A0004DF808EDFFF7C8FF34BF012000205DF8C0
:1010B00008FB00BF42000ED2B2F1FE4F0BD34FF03F
:1010C0009E03B3EB126209D44FEA002343F00043BE
:1010D00023FA02F070474FF00000704712F1610FE1
:1010E00001D1420202D14FF0FF3070474FF00000B3
:1010F000704700BF7BB972B90029BEBF00204FF016
:10110000004106E008BF00281CBF6FF000414FF00F
:10111000FF3000F0BFB9ADF1080C6DE904CE002935
:1011200009DB002B1ADB00F04DF8DDF804E0DDE907
:10113000022304B07047404261EB4101002B1BDBEE
:1011400000F040F8DDF804E0DDE9022304B040429D
:1011500061EB4101524263EB43037047524263EB40
:10116000430300F02FF8DDF804E0DDE9022304B0CA
:10117000404261EB41017047524263EB430300F090
:1011800021F8DDF804E0DDE9022304B0524263EB0C
:101190004303704753B94AB9002908BF00281CBF50
:1011A0004FF0FF314FF0FF3000F074B9ADF1080C93
:1011B0006DE904CE00F006F8DDF804E0DDE9022375
:1011C00004B070472DE9F047089E0D460446884656
:1011D000002B4DD18A42944668D9B2FA82F252B1BC
:1011E00001FA02F3C2F1200120FA01F10CFA02FC2B
:1011F00041EA030894404FEA1C45210CB8FBF5FE78
:101200001FFA8CF705FB1E8341EA03430EFB07F12F
:1012100099420BD91CEB03030EF1FF3080F01E81C5
:10122000994240F21B81AEF1020E63445B1AA4B2F4
:10123000B3FBF5F005FB103344EA034400FB07F76A
:10124000A7420AD91CEB040400F1FF3380F00881A7
:10125000A74240F2058164440238E41B40EA0E4094
:1012600000211EB1D4400023C6E90043BDE8F08749
:101270008B4208D9002E00F0EE800021C6E900055F
:101280000846BDE8F087B3FA83F100294AD1AB42A2
:1012900002D3824200F2F980841A65EB0303012035
:1012A0009846002EE2D0C6E90048DFE702B9FFDE2B
:1012B000B2FA82F2002A40F09180A1EB0C054FEACD
:1012C0001C471FFA8CFE0121B5FBF7F307FB1350F7
:1012D000250C45EA00450EFB03F0A84208D91CEB9B
:1012E000050503F1FF3802D2A84200F2CB80434645
:1012F0002D1AA4B2B5FBF7F007FB105544EA0544DC
:101300000EFB00FEA64508D91CEB040400F1FF35D6
:1013100002D2A64500F2BB802846A4EB0E0440EAA8
:1013200003409EE7C1F120078B4022FA07FC4CEAFC
:10133000030C20FA07F405FA01F31C43FD404FEAC1
:101340001C4900FA01F3B5FBF9F8200C1FFA8CFEDA
:1013500009FB185540EA054508FB0EF0A84202FAC1
:1013600001F20BD91CEB050508F1FF3A80F08880EB
:10137000A84240F28580A8F1020865442D1AA4B263
:10138000B5FBF9F009FB105544EA054500FB0EFEDC
:10139000AE4508D91CEB050500F1FF346CD2AE4513
:1013A0006AD90238654440EA0840A0FB0294A5EBE4
:1013B0000E05A542C846A64656D353D05EB1B3EB40
:1013C000080265EB0E0505FA07F722FA01F3CD4096
:1013D0001F43C6E900750021BDE8F087C2F1200374
:1013E00020FA03F10CFA02FC25FA03F395400D43B1
:1013F0004FEA1C471FFA8CFEB3FBF7F107FB1130D5
:101400002B0C43EA004301FB0EF0984204FA02F46D
:1014100008D91CEB030301F1FF382FD298422DD9D4
:10142000023963441B1AADB2B3FBF7F007FB10336C
:1014300045EA034500FB0EF3AB4208D91CEB05055A
:1014400000F1FF3816D2AB4214D902386544ED1AC8
:1014500040EA014138E73146304607E78646E5E68F
:101460001846FAE64B45A9D2B9EB020864EB0C0E1C
:101470000138A3E74046EAE7204694E74146D1E732
:10148000D0467BE7023B654432E7084609E76444FF
:10149000023842E7704700BF844641EA000313F078
:1014A00003036DD1403A41D351F8043B40F8043B6B
:1014B00051F8043B40F8043B51F8043B40F8043B2E
:1014C00051F8043B40F8043B51F8043B40F8043B1E
:1014D00051F8043B40F8043B51F8043B40F8043B0E
:1014E00051F8043B40F8043B51F8043B40F8043BFE
:1014F00051F8043B40F8043B51F8043B40F8043BEE
:1015000051F8043B40F8043B51F8043B40F8043BDD
:1015100051F8043B40F8043B51F8043B40F8043BCD
:1015200051F8043B40F8043B403ABDD2303211D36D
:1015300051F8043B40F8043B51F8043B40F8043BAD
:1015400051F8043B40F8043B51F8043B40F8043B9D
:10155000103AEDD20C3205D351F8043B40F8043B6D
:10156000043AF9D2043208D0D2071CBF11F8013B6B
:1015700000F8013B01D30B8803806046704700BF31
:10158000082A13D38B078DD010F003038AD0C3F140
:101590000403D21ADB071CBF11F8013B00F8013B22
:1015A00080D331F8023B20F8023B7BE7043AD9D3E1
:1015B000013A11F8013B00F8013BF9D20B780370B6
:1015C0004B7843708B788370604670470000000052
:1015D000000000000000000000000000000000000B
:1015E000A2EB0300704700BF02780B78012A28BFE6
:1015F0009A42F5D16DE9044540EA0104CDE902675C
:101600006FF0000C4FEA447212B380EA010414F048
:10161000070F6AD100F0070420F0070004F003056B
:1016200021F007014FEAC505F0E8042314F0040F88
:10163000F1E804670CFA05F462EA040266EA0406BB
:101640000AD063EA0403624667EA0407664603E0D9
:10165000F0E80423F1E8046782FA4CF582EA060414
:10166000A4FA8CF46CBB83FA4CF583EA0705A5FA5F
:101670008CF595B950E9022351E9026782FA4CF5DD
:1016800082EA0604A4FA8CF483FA4CF583EA07058F
:10169000A5FA8CF52543DBD09CB92DBAB5FA85F4B3
:1016A00024F0070427FA04F1DDE9026723FA04F3C2
:1016B00003F0FF0001F0FF01FDE80445A0EB01008D
:1016C000704724BAB4FA84F424F0070426FA04F12B
:1016D000DDE9026722FA04F202F0FF0001F0FF01E7
:1016E000FDE80445A0EB0100704714F0030F3CD166
:1016F00010F0030428D150F8082B51F8083B82FA67
:101700004CF582EA0305A5FA8CF55DB950F8042C76
:1017100051F8043C82FA4CF582EA0305A5FA8CF5EF
:10172000002DE8D02DBAB5FA85F424F0070423FA89
:1017300004F122FA04F202F0FF0001F0FF01FDE8DB
:101740000445A0EB010070474FEAC40420F00300F9
:1017500050F8082B21F0030151F8083B0CFA04F46F
:1017600062EA040263EA0403C9E710F003041AD032
:10177000A1EB040120F00300E40750F8042B06D08D
:101780000FD28B785FFAA2F4E41A06D12BB1CB7892
:101790005FFAB2F4E41A00D11BB920465DF8104B91
:1017A000704701F1040150F8042BCC0721F003012C
:1017B00051F8043B48D824D222F07F4482FA4CF5F9
:1017C00094EA1325A5FA8CF50AD165B951F8043BC2
:1017D00084EA0204B4EB036F0ED150F8042BEBE75C
:1017E0004FEA132355E035F07F454DD10878FDE8E9
:1017F0000445C0F1000070474FEA126203F0FF0396
:1018000047E002EA1C4482FA4CF594EA1345A5FA33
:101810008CF50AD165B951F8043B84EA0204B4EBB3
:10182000034F0CD150F8042BEBE74FEA134330E0A1
:1018300015EA1C4528D10B884FEA124229E04FEAED
:10184000124203EA1C4324E002F0FF0482FA4CF542
:1018500094EA1365A5FA8CF50AD165B951F8043BF1
:1018600084EA0204B4EB032F09D150F8042BEBE710
:101870004FEA13630DE015F0FF0F05D10B684FEA37
:10188000122223F07F4304E04FF00000FDE80445FE
:10189000704712BA1BBA82FA4CF482EA0304A4FA23
:1018A0008CF5B5FA85F402FA04F203FA04F34FEA70
:1018B0001260FDE80445A0EB1360704700000000D3
:1018C00090F800F06DE9024520F007016FF0000C80
:1018D00010F0070491F820F040F049804FF0000428
:1018E0006FF00700D1E9002391F840F000F1080003
:1018F00082FA4CF2A4FA8CF283FA4CF3A2FA8CF33B
:101900004BBBD1E9022382FA4CF200F10800A4FAA1
:101910008CF283FA4CF3A2FA8CF3E3B9D1E90423F5
:1019200082FA4CF200F10800A4FA8CF283FA4CF32C
:10193000A2FA8CF37BB9D1E9062301F1200182FAE6
:101940004CF200F10800A4FA8CF283FA4CF3A2FAEC
:101950008CF3002BC6D0002A04BF04301A4612BAFA
:10196000B2FA82F2FDE8024500EBD2007047D1E9FD
:10197000002304F00305C4F100004FEAC50514F08C
:10198000040F91F840F00CFA05F562EA05021CBF5D
:1019900063EA050362464FF00004A9E70000000077
:1019A00001F0FF01102A2BDB10F0070F08D010F810
:1019B000013B013A8B422DD010F0070F42B3F6D114
:1019C000F0B441EA012141EA014122F007047FF02D
:1019D00000070023F0E80256083C85EA010586EA84
:1019E000010685FA47F5A3FA87F586FA47F6A5FAC0
:1019F00087F68EB9EED1F0BC01F0FF0102F00702CC
:101A000032B110F8013B013A83EA010313B1F8D176
:101A10000020704701387047002D06BF3546033857
:101A2000073815F0010F07D1013015F4807F02BF90
:101A3000013015F4C03F0130F0BC0138704700BFE1
:101A40004FEA410C7FEA6C5C02D150EA013C0AD1BA
:101A50004FEA430C7FEA6C5C02D152EA033C02D1AC
:101A60004FF0000070474FF0010070474FEA41020D
:101A700012F5001215D211D56FF47873B3EB6252E0
:101A800012D94FEAC12343F0004343EA505311F007
:101A9000004F23FA02F018BF404270474FF0000099
:101AA000704750EA013005D111F0004008BF6FF0D7
:101AB000004070474FF00000704700BF38B5054642
:101AC0000C462846214600220023FEF787FF28B94E
:101AD00028462146BDE8384000F00AB8284604F1FF
:101AE000004100F005F8404261EB410138BD00BF04
:101AF000D0B50C4B002206460F46FEF7FDFCFEF764
:101B000095FF0446FEF77EFC074B0022FEF7F4FC2F
:101B100002460B4630463946FEF736FBFEF786FF97
:101B20002146D0BD0000F03D0000F04110B40F4B45
:101B300053F820408CB10E4B03EB800041698B1EA3
:101B400001EB44010239002001E08B4206D033F85A
:101B5000022F002AF9D00130F7E72046642303FB67
:101B600000F0B0FBF4F0C0B210BC7047587B030823
:101B700000000020134622B1034400F8011B8342F9
:101B8000FBD1704738B504460C4B53F820200C4D60
:101B900005EB8003520000215869FFF7EBFFA31CFF
:101BA000084A52F82420002155F82300FFF7E2FFED
:101BB0002C44012384F8203038BD00BF587B030833
:101BC000000000204C7B0308F8B506460C46254B68
:101BD000034493F8203013B9224B1B689847002C1C
:101BE00039D0214B53F82670B4FBF7F18DB207FBC7
:101BF00011440CB10135ADB21C4B53F82620531ED5
:101C00002CD4184901EB8601496901EB42010022FD
:101C1000944604E06246954209D0013B18D4184628
:101C200031F8024D002CF5D1013292B2F3E72C4687
:101C30005DB14200002304360A4901EB8606716853
:101C40008D5201330232A342F9D107FB00F0F8BDF7
:101C50004FF0FF30FBE74FF0FF30F8E74FF0FF3079
:101C6000F5E700BF00000020407B0308587B030815
:101C700008B5184B034493F820300BB3164B53F8B8
:101C800020308B4221D9154B53F82020B1FBF2F2C2
:101C90005300104901EB8001496931F81210B1B1CC
:101CA0001144490004300B4A02EB80004FF0000C55
:101CB000426822F803C002338B42F9D1002008BDEC
:101CC000044B1B6898470120F9E70220F7E7002042
:101CD000F5E700BF000000204C7B0308407B0308B1
:101CE00049B108B50B46811C034A52F82110591A14
:101CF000FFF7BEFF08BD70470000002010B5044686
:101D0000FFF762FFB0F1FF3F05D00234034B53F8F9
:101D10002430184410BD0020FCE700BF0000002064
:101D200010B541F258010020FFF7E8FF214B186081
:101D300038B341F258010020FFF7E0FF1D4B586017
:101D4000F8B14FF482510020FFF7D8FF1A4C206001
:101D50004FF482510020FFF7D1FF184B18604FF469
:101D600000710020FFF7CAFF154B1860236833B1DC
:101D7000124B1B68E3B1B0FA80F0400910BD01209E
:101D8000FCE74FF482510020FFF7B8FF0A4B1860C0
:101D90004FF482510020FFF7B1FF084B18604FF459
:101DA00000710020FFF7AAFF054B18600120E5E74E
:101DB0000120E3E7A4210020A0210020AC21002085
:101DC0009C21002008B5B7200EF040FD50200EF0F9
:101DD0002FFD02200EF02CFDBD200EF037FD00205F
:101DE0000EF026FD00200EF023FD01200EF062FD16
:101DF00028200EF01DFD0A2013F098F901200EF0A6
:101E000059FD10200EF014FD052013F08FF900206D
:101E10000FF078F800200EF010FF00200EF057FFB2
:101E200000200EF0FFFF00200FF00AF80021012033
:101E300009F048FD00200EF0E1FE00200EF028FF22
:101E400000200EF06FFF00200EF0C4FF00200EF007
:101E5000D5FF0021022009F035FD00200EF01DFD08
:101E600000F00EFE0AF020FD01200EF0D7F8002051
:101E70000FF02EF800200EF053FA00200FF00EF8AD
:101E800000200EF06DFD00200EF08CFD00200EF005
:101E9000ADFD00200EF044FD0F200EF0E7F800210C
:101EA00001200EF0FBF9002102200EF0F7F90021CD
:101EB00003200EF0F3F9002104200EF0EFF908BD25
:101EC0002DE9F04F8DB009F017FF64210A200EF0C4
:101ED000B1FD64211E200EF0C3FE64211E200EF011
:101EE00009FF642132200EF051FF642132200EF0F0
:101EF0005FFF494D2B78494C54F82330B3F8AE00BE
:101F00000EF068FF2B7854F82330B3F8B8000EF0C9
:101F100075FF2B7854F82330B3F872000EF0A2FD51
:101F20002B7854F82330B3F87C000EF0AFFD2B78FB
:101F300054F82330B3F886000EF0BCFD2B7854F82B
:101F40002330B3F890000EF0C9FD2B7854F82330FD
:101F5000B3F89A000EF0D6FD2B7854F82330B3F87E
:101F6000A4000EF0E3FD01200EF0F4FD01200EF0C0
:101F7000FFFD01200EF00AFE01200EF015FE0120EB
:101F80000EF020FE01200EF02BFE01200EF04AFF85
:101F900001200EF055FF01200EF0B4FF00200EF0DE
:101FA0003DF801200EF05AFF01200EF077FF32209D
:101FB00013F0BCF800200EF051FF0F200EF056F881
:101FC000322013F0B3F801200EF048FF322013F056
:101FD000ADF80121022009F075FC322013F0A6F8BB
:101FE0000021022009F06EFC322013F09FF801213D
:101FF000022009F067FC2B7854F8233093F8CC00CA
:102000000EF068F82B7854F8233093F86130022BE7
:1020100040F2918104E000BFE74700201C0200204D
:10202000002000F075FA00F0BDFA142013F07EF8DD
:1020300000F014FE002502950327069701950595EB
:102040004FF01509CDF80C904FF0FF088DF81C806B
:102050004FF0D00A8DF81DA0022207A901A801F0B7
:1020600013F90A2013F062F8FB268DF81C60012496
:102070008DF81D40022207A901A801F005F94FF0D3
:10208000090B8DF81CB0A6238DF81D30022207A97C
:1020900001A801F0F9F81C238DF81C3099238DF864
:1020A0001D30022207A901A801F0EEF81D238DF8CA
:1020B0001C308DF81DB0022207A901A801F0E4F838
:1020C0008DF81C80E0238DF81D30022207A901A89D
:1020D00001F0DAF80A2013F029F88DF81C608DF869
:1020E0001D40022207A901A801F0CEF892238DF825
:1020F0001C308DF81DA0022207A901A801F0C4F828
:102100008DF81C804FF0F00A8DF81DA0022207A95F
:1021100001A801F0B9F80A2013F008F88DF81C6046
:102120008DF81D40022207A901A801F0ADF8C623D1
:102130008DF81C308DF81D50022207A901A801F06E
:10214000A3F88DF81C8027238DF81D30022207A9E3
:1021500001A801F099F80A2012F0E8FF8DF81C6040
:102160008DF81D40022207A901A801F08DF83F2338
:102170008DF81C3035238DF81D30022207A901A8E7
:1021800001F082F840238DF81C3028238DF81D3093
:10219000022207A901A801F077F841238DF81C302D
:1021A00030238DF81D30022207A901A801F06CF838
:1021B0004D238DF81C308DF81D60022207A901A85F
:1021C00001F062F84E238DF81C309F238DF81D30EE
:1021D000022207A901A801F057F88DF81C804FF0E2
:1021E00010088DF81D80022207A901A801F04CF803
:1021F0000A2012F09BFF8DF81C608DF81D50022202
:1022000007A901A801F040F8B0238DF81C308DF823
:102210001D40022207A901A801F036F855238DF8C8
:102220001C3080238DF81D30022207A901A801F07F
:102230002BF826238DF81C308DF81D40022207A9AB
:1022400001A801F021F8C0238DF81C308DF81D8005
:10225000022207A901A801F017F80A2012F066FF70
:1022600039230393C1238DF81C30AB238DF81D3027
:102270002A238DF81E308DF81F5020238DF8203032
:1022800002238DF821308DF822508DF82340D82379
:102290008DF824308DF82570B3238DF826308DF815
:1022A00027500A258DF828508DF8297019238DF8AC
:1022B0002A308DF82B70E4238DF82C30112207A9D9
:1022C00001A800F0E1FF284612F030FFC2238DF88C
:1022D0001C300C238DF81D308DF81EA03A4607A93E
:1022E00001A800F0D1FF284612F020FFCDF80C9095
:1022F00011238DF81C30224607A901A800F0C4FF65
:10230000C82012F013FF29238DF81C30224607A99C
:1023100001A800F0B9FF642012F008FFCDF80C907E
:1023200040F24B31B72000F0FFFA20460EF0D0FD0E
:102330000DB0BDE8F08F0AF00DFA71E610B5044655
:10234000094B1A781978094B53F8211053F82230A9
:102350000246B1F86410B3F862000AF0A9F9214608
:10236000034802F027FA10BDE74700201C020020B6
:10237000647B030830B585B0144B1A781D7893F848
:1023800000C093F800E0124C54F82530B3F86430E4
:10239000013B54F82220B2F86220013A03910290E6
:1023A00054F82E10B1F86410019154F82C10B1F8C3
:1023B000621000919BB292B20121084609F0F2FF2F
:1023C000044802F0F7F905B030BD00BFE747002030
:1023D0001C0200207C7B03082DE9F04784B0264BCB
:1023E0001F7893F800C093F800801A7893F8009053
:1023F0001D7893F800E01E78204C54F8299054F88A
:102400002530B3F864301E4DA5FB03A3B9F86490E2
:10241000A9EB530354F8288054F82220B2F8622024
:10242000A5FB0292B8F86280A8EB520254F82CC0C7
:10243000BCF864C0A5FB0C8C54F82770B7F8627028
:10244000A5FB07750391029054F82610B1F86410AB
:10245000019154F82E10B1F8621000919BB292B223
:102460004FEA5C01680809F09DFF064802F0A2F9F6
:1024700004B0BDE8F08700BFE74700201C02002041
:10248000ABAAAAAA987B030810B504460AF03CF947
:102490002146024802F08EF910BD00BFB07B030850
:1024A00038B502460B46094C21782078084C54F880
:1024B000205054F82140B5F86410B4F8620009F0D7
:1024C000ADFF044802F076F938BD00BFE7470020B1
:1024D0001C020020C47B030838B502460B46094C99
:1024E00021782078084C54F8205054F82140B5F851
:1024F0006410B4F862000AF047F8044802F05AF990
:1025000038BD00BFE74700201C020020E07B030825
:1025100008B50A280AD8DFE800F0060A0F151B22C2
:10252000272B2F343B001C48FFF708FF08BD4FF056
:10253000FF30FFF703FFF9E7FF214FF0FF30FFF710
:10254000CBFFF3E7FF214FF0FF30FFF7A9FFEDE7E7
:102550004FF07F414FF0FF30FFF70CFFE6E74FF001
:10256000FF20FFF7EBFEE1E70C48FFF7E7FEDDE7B2
:102570000B48FFF7E3FED9E74FF07F40FFF7DEFEA1
:10258000D4E74FF07F414FF0FF30FFF725FFCDE755
:102590000120FFF779FFC9E7808080FF0000FFFF7F
:1025A000FF0000FF70B540F2026001F0E1FD40F273
:1025B000036001F0DDFD40F2046001F0D9FD244C20
:1025C000102303221946204601F08CFA202303220F
:1025D0001021204601F086FA802303221021204694
:1025E00001F080FA1B4E042303221021304601F033
:1025F00079FA194D022303221021284601F072FABC
:102600004FF4805303221021284601F06BFA402337
:1026100003220421204601F065FA0421304601F02E
:1026200015FB4FF48051284601F01FFB022128467C
:1026300001F01BFB1021204601F008FB2021204661
:1026400001F004FB8021204601F000FB70BD00BFBB
:102650000008014000100140000C014008B501468F
:102660000020FFF74BFB08BD08B501460020FFF72F
:1026700037FB08BDF8B504460825114E202714F095
:10268000800F4FF0800314BFC6F81038C6F8143816
:102690006400E4B2C6F81478082012F001FDC6F810
:1026A0001078082012F0FCFC6B1E13F0FF05E6D139
:1026B000034B8022C3F81028082012F0F1FCF8BD6B
:1026C000000001402DE9F047184B1022C3F81428F0
:1026D000082012F0E5FC08250024DFF850802027B0
:1026E0002E46DFF84CA04FF0400903E06B1E13F0BC
:1026F000FF0514D0C8F81478304612F0D1FCC8F8A1
:102700001078304612F0CCFC6400E4B249465046E2
:1027100001F0BAFA0028E9D044F00104E6E7034BDF
:102720001022C3F810282046BDE8F08700000140C1
:102730000008014000290BDD68B138B5441E65185A
:10274000FFF7C0FF04F8010FAC42F9D1012038BDFA
:102750004FF0FF3070474FF0FF30704700B583B047
:10276000FFF7E8FF002803DD012003B05DF804FB5C
:1027700040F225130093044B044A0549054817F01D
:10278000BBFD4FF0FF30F0E7FC7B0308247E03081D
:10279000107C0308187C030800290BDD68B138B5EC
:1027A000441E651814F8010FFFF764FFAC42F9D11D
:1027B000012038BD4FF0FF3070474FF0FF307047B9
:1027C00030B583B00C4C1025C4F81458FFF7E4FF63
:1027D000C4F81058002802DD012003B030BD4FF4CA
:1027E0009E730093054B064A0649074817F084FD7F
:1027F0004FF0FF30F1E700BF00000140FC7B030811
:10280000347E0308107C0308187C03082DE9F04788
:10281000814601F0010A31F001061CD0841C154DDF
:102820004FF072086FF001073F1A85F8008014F826
:10283000023C6B7014F8013CAB7003212846FFF793
:10284000BFFF02343B199E42EFD8B144BAF1000FEA
:1028500003D1BDE8F0870020F8E706487223037033
:102860000023437099F8003083700321FFF7A8FF1D
:10287000EFE700BF502A002008B5054B70221A7000
:1028800000225A70987003211846FFF799FF08BD7F
:10289000502A0020C1B12DE9F84306460F46002416
:1028A0000A4D4FF073094FF0010885F8009041463A
:1028B0002846FFF785FF02213019FFF74FFF02344A
:1028C000A742F2D8BDE8F88300207047502A0020C4
:1028D00000B583B0B62804D0B72819D10F4B1960C2
:1028E00001E00F4B19600B0E8DF806300B0C8DF8C4
:1028F00007300B0A8DF804308DF80510FFF7BCFF88
:1029000004210DEB0100FFF781FF03B05DF804FB2C
:10291000DE2804BF034B1960E5E700BF382A00201A
:10292000302A0020482A002000B583B0B62814D0F1
:10293000B7281FD1134A538841EA034313600B0A97
:102940008DF804308DF80510FFF796FF022101A8DD
:10295000FFF75CFF03B05DF804FB0B4A538841EAC4
:1029600003431360DE28EAD1084A538841EA03434F
:102970001360E4E7BD28F5D1054A538841EA0343D3
:102980001360DCE7382A0020302A0020482A002083
:10299000402A002030B583B005460C460023019341
:1029A000FFF76AFF04210DEB0100FFF773FF9DF8AD
:1029B00006309DF8072042EA03229DF8043043EADE
:1029C00002229DF8053043EA02232360002803DC3D
:1029D0004FF0FF3003B030BDB62D05D0B72D07D175
:1029E000074A13600120F5E7064A13600120F1E76A
:1029F000DE2D03D1044A13600120EBE70120E9E753
:102A0000382A0020302A0020482A002030B583B020
:102A100005460C4600230093ADF80430E020FFF794
:102A20002BFF230E8DF80430230C8DF80530230A7C
:102A30008DF802308DF803402B0A8DF800308DF8A8
:102A4000015006216846FFF7E1FE03B030BD0000EB
:102A500038B5094C042525614CF2503012F020FBAA
:102A60006561064812F01CFB25614CF2503012F0F3
:102A700017FB012038BD00BF00100140A0860100F7
:102A8000024B04225A610120704700BF0010014030
:102A900010B582B00023019301A9B120FFF77AFF9E
:102AA000594C019A2146594817F026FC01A9B22039
:102AB000FFF770FF019A2146554817F01DFC01A948
:102AC000B320FFF767FF019A2146524817F014FC24
:102AD00001A9B420FFF75EFF019A21464E4817F086
:102AE0000BFC01A9B520FFF755FF019A21464B4881
:102AF00017F002FC01A9B620FFF74CFF019A21460E
:102B0000474817F0F9FB01A9B720FFF743FF019AE7
:102B10002146444817F0F0FB01A9B820FFF73AFF1F
:102B2000019A2146404817F0E7FB01A9B920FFF7B9
:102B300031FF019A21463D4817F0DEFB01A9BA207A
:102B4000FFF728FF019A2146394817F0D5FB01A964
:102B5000BB20FFF71FFF019A2146364817F0CCFB38
:102B600001A9C620FFF716FF019A2146324817F047
:102B7000C3FB01A9C720FFF70DFF019A21462F488B
:102B800017F0BAFB01A9C920FFF704FF019A2146FB
:102B90002B4817F0B1FB01A9CA20FFF7FBFE019AF1
:102BA0002146284817F0A8FB01A9CB20FFF7F2FE29
:102BB000019A2146244817F09FFB01A9CC20FFF77A
:102BC000E9FE019A2146214817F096FB01A9D6207B
:102BD000FFF7E0FE019A21461D4817F08DFB01A981
:102BE000DE20FFF7D7FE019A21461A4817F084FB32
:102BF00001A9DF20FFF7CEFE019A2146164817F003
:102C00007BFB012002B010BD107C0308307C030860
:102C1000447C0308587C03086C7C0308807C030810
:102C2000947C0308A87C0308BC7C0308D07C0308C0
:102C3000E47C0308F87C03080C7D0308207D03086E
:102C4000347D0308487D03085C7D0308707D03081C
:102C5000847D0308987D0308AC7D03082DE9F047C7
:102C6000C7490B78C74CC84A52F82330B3F86A30CA
:102C700023600B7852F82330B3F8703063600B7820
:102C800052F82330B3F86830A3600B7852F8233041
:102C9000B3F86E30E3600B7852F82330B3F8663047
:102CA00023610B7852F82330B3F86C3063610B78F2
:102CB00052F82330B3F86230A3610B7852F8233016
:102CC000B3F86430E361002323626362A362E362CA
:102CD00023636363A363E36301252564087852F8E3
:102CE000200090F85C0001386064A3640320E06475
:102CF00023656365A565E3652366097852F821209D
:102D000092F8612062660222A266C4F8903007221F
:102D1000E2664FF4347222676367A367E567C4F81D
:102D20008050C4F88430C4F88850984BC4F894306C
:102D30004FF47F03C4F898301F33C4F8A030C4F8B0
:102D40009C009349934817F0D7FAD4F88850002D87
:102D500079D08F49904817F0CFFA904B0222C3F8F0
:102D6000142C4CF2503012F09BF9FFF771FEB4F8BE
:102D70008430190141EA8301194341EA831189B280
:102D8000B820FFF7D1FD0021B920FFF7CDFDE56E9A
:102D9000216F0431824BA3FB013121F0030909EBC0
:102DA00091094846FDF72EFB00227E4BFDF7A4FB60
:102DB00006460F46C5EBC500FDF724FB02460B4651
:102DC00030463946FDF7C2FCFDF730FE0446FDF7FC
:102DD00053FF7549FDF7A8FF80462846FDF74CFFD5
:102DE00001464046FDF7A0FFFDF72EFB02460B46CD
:102DF00030463946FDF7C8F900220023FDF70CFEE6
:102E000000B10134013CB9F17C0F40F20581B9F108
:102E1000F90F40F215820125B9F5FA7F6049A1FB4F
:102E20000931C1F3870134BF4FF400494FF44049E1
:102E300049EA010141F4A061BA20FFF775FD002DB8
:102E400000F0E380F2E05249584817F055FA534B2E
:102E50000222C3F8102C4CF2503012F021F9FFF787
:102E6000F7FD484CB4F88430190141EA8301194355
:102E700041EA831189B2B820FFF756FD0021B9203D
:102E8000FFF752FDD4F86C80216F0431444BA3FB53
:102E9000013121F0030909EB91094846FDF7B2FA27
:102EA00006460F464FEAC800FDF7ACFA02460B464D
:102EB00030463946FDF74AFCFDF7B8FD0446FDF7FC
:102EC000DBFE4FF08241FDF72FFF82464046FDF7C3
:102ED000D3FE01465046FDF727FFFDF7B5FA02463F
:102EE0000B4630463946FDF74FF900220023FDF727
:102EF00093FD00B10134013CB9F17C0F7BD9B9F1EC
:102F0000F90F89D82649A1FB0931C1F3870141F4A2
:102F10008A41BA20FFF708FD77E01A49CB684A6872
:102F200013448A6809680A44190A1B029BB243EADF
:102F30000163D1B20B43110201F47F011943B220A6
:102F4000FFF7C6FCA1E00F4BD3F8943013F47F0FCA
:102F50001ABF174941EA436116490A4BD3F8983022
:102F600013F47F0F1CBF21F0E07141EA8351D82098
:102F7000FFF7AEFCEFE0012B1ED00021F4E000BF14
:102F8000E7470020502B00201C0200200E00FF000D
:102F9000107C0308C07D0308CC7D030800000140BD
:102FA000CDCCCCCC0000E03F0000E040E87D030841
:102FB00019851C2119851C2BA74B596C41EA8101ED
:102FC00041F07001D0E0012B40F0D980A24BD3F842
:102FD0008C30002B00F0D38041F00071CFE041F441
:102FE0008061EEE041F00401F5E041F0010101E112
:102FF00041F00201FEE09949A1FB0931C1F38F01C3
:1030000041F4A061BA20FFF78FFC04F03F01BB2020
:10301000FFF78AFC002513E09049A1FB0931C1F3B9
:103020008F0141F4A061BA20FFF77EFC04F03F015C
:1030300041F0E06141F4A021BB20FFF749FC0125EC
:103040000121B920FFF770FC44F6206012F028F847
:10305000814C6368216841EA032189B2B120FFF7FE
:1030600063FC636E002B7FF458AFE368A268190A13
:103070001B029BB243EA0163D1B20B43110201F47C
:103080007F011943B220FFF723FC734C62691304DC
:1030900003F07F4C20690302120291B203F47F0314
:1030A00043EA0C03C0B203431943B320FFF710FCFB
:1030B000218BB420FFF70CFCA18BB520FFF708FC97
:1030C0000021CF20FFF704FC1021D020FFF700FCE7
:1030D0004021D320FFF7FCFB216D614A614B0029A1
:1030E0000CBF11461946D620FFF7F2FB002D3FF426
:1030F0002AAFD4F8943013F47F0F1ABF5A4941EA2B
:1031000043615A49544BD3F89C300BB141EAC34157
:10311000514BD3F8983013F47F0F1CBF21F0E071AE
:1031200041EA8351D820FFF7D3FB4B4BD3F8A040A3
:1031300014F47F0F1DBF240444F0D85444F4F25417
:103140004B4C21464FF48050FFF760FC21464FF472
:103150000050FFF75BFC404B1B6C002B7FF40BAF68
:103160003D4B596C41F020013B4B9B6C002B7FF495
:103170002AAF394BD3F890300BB141F40011DE2067
:10318000FFF7A6FB344B9A6F3A493B4B002A08BF26
:103190001946314BDB6D0BB141F400412E4B1B6ED8
:1031A0000BB141F480412C4B5B6D0BB141F40051EC
:1031B000294B9B6E012B3FF412AF022B08BF41F449
:1031C0000061254B5B6E33B1012B3FF40BAF022B3B
:1031D00008BF41F00801204BDB6C5BB1012B3FF4D1
:1031E00004AF022B3FF404AF032B04BF41F4817101
:1031F00041F00101B620FFF76BFB4FF47A7011F03C
:103200004FFF154BDB6F002B0CBF4FF480744FF456
:103210004074114BD3F880300BB144F009042246BE
:103220001649174817F068F82146B720FFF77CFBCE
:10323000144811F035FFFFF72BFC0120BDE8F087A3
:103240000649A1FB0931C1F3870141F48A41BA2043
:10325000FFF76AFBEAE600BF502B0020CDCCCCCCB8
:103260000401001005010010398F1C20398F7C3EAD
:10327000401E121B80100200A0100200107C0308E8
:10328000047E0308A08601002DE9F0470746894621
:103290001646584B1B6823F06001426912F0010F7B
:1032A00018BF41F0200112F0020F18BF41F0400199
:1032B00099422ED1504B1B687BBB504B1D68504B25
:1032C0001C68ADB2A4B2B1B2BC20FFF72DFBBB6845
:1032D000052B27D0A3F11302262A00F28280134681
:1032E000262B00F28180DFE803F06D7F1D7F7F7F5A
:1032F0007F7F7F7F7F7F7F7F7F7F6D7F7F7F7F7FF0
:10330000717F7F7F7F7F7F7F7F7F7F7F7F7F7F7FDB
:103310006800DE20FFF7DCFACCE70021BD20FFF7D4
:1033200003FBCAE724F4A45444F040047B68002B58
:1033300051D025F04005A9B244F0010414F0080F63
:1033400018BF44F00904B620FFF7EEFA2146B72073
:10335000FFF7EAFABF20FFF78FFA06F0010A36F00E
:10336000010619D009F10204264D4FF072086FF0E2
:103370000107A7EB090785F8008014F8023CAB7041
:1033800014F8013C6B7003212846FFF719FA023448
:103390003B19B342EFD3B144BAF1000F26D019481C
:1033A0007223037099F8003083704FF0000A80F8A0
:1033B00001A00321FFF704FA18E024F4845444F434
:1033C0008864B3E724F4A654A4B2AFE724F4865487
:1033D00044F48064AAE745F0400124F00104A4B25B
:1033E000ACE74FF0FF3A01E04FF0FF3A5046BDE83E
:1033F000F08700BF482A0020402A0020302A002001
:10340000382A0020502A00200C4B1B680C4AA2FBD3
:1034100003239B09013BB3F1807F0DD24FF0E022E3
:103420005361084BF02183F823100021916107209C
:10343000106183F823107047FEE700BF20020020D0
:10344000D34D621000ED00E07047FEE7FEE7FEE7B7
:10345000FEE770477047704708B511F097FE08BD4A
:103460007047000008B540F2036000F081FE4FF4A1
:10347000007303221021044800F034FB0349044880
:1034800016F03AFF08BD00BF000C0140107C030895
:10349000487E030800B583B0FFF7B6FF1E4800F072
:1034A00081F91E4800F07EF91D4800F07BF9FFF716
:1034B000D9FF11F017FF10F047F80DF0CFFD0CF019
:1034C000C1FC184B1B780BB3002000904FF4E13384
:1034D0000246012109F0C0FE09F06EFF0FF07EFBED
:1034E0000EF0D8F808F00CF910F050FA10F0C2F90C
:1034F0000D4B98420D490CBF0D480E4816F0FCFECE
:103500000D480FF015FF03B05DF804FB12F058FDF5
:1035100012F08EFEE2E700BF003801400044004098
:10352000004800405C1600201740EF00107C0308A4
:10353000647E0308807E0308507A0020F0B5ADF564
:10354000855D81B0012484F31088002585F31088FF
:103550004FF480314FF0006000F0ACFA7E4B1D70EC
:10356000FFF798FF01F04EF80DF0CAF90CF01EFBC2
:1035700020460CF07BFD20460DF0C4FC09F0A4FAB7
:1035800009F0A2FC08F0EAFB0EF09CFA11F014F925
:10359000724816F013FF724B19785B7843EA0121E9
:1035A000704801F007F9FEF7BBFB2846FEF7EAFA80
:1035B00020460DF083FE02466B4E31466B4816F0F6
:1035C0009BFE02200DF07AFE02463146684816F056
:1035D00093FE684E22463146284605F077FB224688
:1035E0003146654805F072FB0D282BD061480FF07D
:1035F0006FFD00230DF583521C3213600DF58452CC
:10360000136053609360D3601361536113835B4C09
:1036100004F5E167544E5A4D0DF583511C31204697
:10362000FDF7E2FF38B122463146284616F064FE27
:103630001E34BC42F0D10CF073FA474B01221A70D1
:10364000504C80E02A462946304606F093FF024659
:10365000454D29464C4816F04FFE012231460020C8
:1036600005F034FB01223146434805F02FFB1322BD
:1036700046490EA805F072FB02460DF58253083349
:103680001B682946424816F037FE00240A940B9422
:103690000C948DF834403F4A04AB07CA03C323F8A7
:1036A000022B120C1A703C4E234604AA31460AA87B
:1036B00016F0D0FE0DF584531C330D220AA90EA876
:1036C00006F0F7F802460DF584531C331B682946B3
:1036D000324816F011FE01340A2CE5D10EA806F08E
:1036E000BEFC032229490EA805F038FB02460DF561
:1036F000825308331B681C49254816F0FDFD03ABB7
:103700000D2207A90EA805F063FE0090039B07AAEF
:103710001549234816F0F0FD013CF0D10EA806F043
:103720009EFC14480FF0D4FC60E709F061FE0EF037
:103730001DFF10F003FC10F06DFA00F003F900F02B
:10374000D3FF0BF015FE0CF057FA2378002BECD1C9
:1037500012F04CFDEBE700BF982C0020987E030888
:10376000507A0020F07E0308107C0308047F0308D1
:10377000187F0308307F0308685800203C6C002045
:10378000AC7F03085C160020347F0308447F0308E5
:10379000547F0308B47F03086C7F0308747F030819
:1037A0008C7F030838B50446614B98423BD0A3F5A3
:1037B0007443984264D003F58063984200F08B8094
:1037C00040F2026000F0D4FC40F20E6000F0D0FC49
:1037D0004FF4C06000F0CCFC0021042000F068FA37
:1037E000544D4FF4007303221821284600F07AF953
:1037F0004FF4806303224821284600F073F92046E5
:1038000000F0C8FA0421204600F0C4FB082120463D
:1038100000F0A3FB204600F08FFB40F2053120466C
:1038200000F014FC38BD40F2026000F0A1FC40F250
:103830000E6000F09DFC4FF4C06000F099FC002188
:10384000042000F035FA3B4D4FF400730322182199
:10385000284600F047F94FF48063032248212846A8
:1038600000F040F901220021252000F09DF82046BB
:1038700000F090FA4FF4E1312D4800F0EDFAC1E785
:1038800040F2026000F074FC40F2117000F070FC35
:103890004FF4C06000F06CFC0021042000F008FA36
:1038A000244D042303221821284600F01BF9082385
:1038B00003224821284600F015F90022114626204F
:1038C00000F072F8204600F065FA4FF4E1311A4832
:1038D00000F0C2FA96E740F2036000F049FC40F2C3
:1038E000127000F045FC4FF4C06000F041FC002174
:1038F000042000F0DDF9114D4FF4806303221821FC
:10390000284600F0EFF84FF40063032248212846D0
:1039100000F0E8F800221146272000F045F8204684
:1039200000F038FA4FF4E121054800F095FA69E714
:10393000003801400008014000440040000C0140F4
:103940000048004008B50D4B1B6863B10B4B0022CB
:103950001A60DB6843B9094B0122DA604FF4007149
:10396000074800F073F908BD044B0022DA604FF4F9
:103970000071034800F079F9F5E700BF9C2C0020A6
:10398000000C014080B483B000AF7860054A7B68CA
:1039900043F0BF6343F40033D36000BF0C37BD4630
:1039A00080BC704700ED00E080B586B000AF0346F4
:1039B000FB710B46BB7113467B710023FB60002338
:1039C0007B6100233B61394BDB6803F4E063B3F5B3
:1039D000E06F04D100237B6104233B6137E0334B6C
:1039E000DB6803F4E063B3F5C06F04D101237B61AE
:1039F00003233B612BE02D4BDB6803F4E063B3F55D
:103A0000A06F04D102237B6102233B611FE0274B9F
:103A1000DB6803F4E063B3F5806F04D103237B61BB
:103A200001233B6113E0214BDB6803F4E063B3F552
:103A3000407F04D104237B6100233B6107E04FF406
:103A4000A060FFF79FFF02237B6102233B61BA79ED
:103A50007B69C3F1040302FA03F3FB607A793B69E3
:103A6000C3F104030F2121FA03F31340FA6813434F
:103A7000FB60FB681B01FB600D4AFB79F968C9B26A
:103A800013440A4683F80023FB7903F01F03084917
:103A9000FA795209D2B21046012202FA03F341F830
:103AA000203000BF1837BD4680BD00BF00ED00E0EC
:103AB00000E100E080B483B000AF786039603B681B
:103AC00023F0604323F07F0305497A6813438B603A
:103AD000BFF34F8F00BF00BF0C37BD4680BC70479F
:103AE00000ED00E080B489B000AFF860B9607A60A2
:103AF0003B600023BB6100237B61BB6803F00F03C5
:103B0000BB61BB6803F01003002B14D07B68042B4F
:103B10000DD1BB6943F00303BB61FB683C331A68FA
:103B2000FB683C3319463B6813430B6003E0BA69FA
:103B30007B681343BB610023FB8339E0FB8B0122CD
:103B40009A403B681340002B2FD0FB681B687B61B9
:103B5000FB8B9B000F2202FA03F3DB437A691340CD
:103B60007B61FB8B9B00BA6902FA03F37A6913430A
:103B70007B61BB68282B09D1FB8B01229A40FB6833
:103B8000143319463B6813400B600BE0BB68482BAD
:103B900008D1FB8B01229A40FB68103319463B6821
:103BA00013400B60FB687A691A60FB8B0133FB835F
:103BB000FB8B072BC2D90823FB833EE0FB8B012242
:103BC0009A403B681340002B34D0FB6804331B68D9
:103BD0007B61FB8B083B9B000F2202FA03F3DB4364
:103BE0007A6913407B61FB8B083B9B00BA6902FA40
:103BF00003F37A6913437B61BB68282B09D1FB8BE4
:103C000001229A40FB68143319463B6813400B604D
:103C10000BE0BB68482B08D1FB8B01229A40FB6864
:103C2000103319463B6813400B60FB6804331A4697
:103C30007B691360FB8B0133FB83FB8B0F2BBDD99F
:103C400000BF00BF2437BD4680BC704780B483B03E
:103C500000AF786039607B6810331A463B681360A8
:103C600000BF0C37BD4680BC704780B483B000AF46
:103C7000786039607B6814331A463B68136000BF74
:103C80000C37BD4680BC704780B483B000AF78600D
:103C900039607B6808331A683B681340002B01D0F9
:103CA000012300E0002318460C37BD4680BC704756
:103CB00080B487B000AF78600B46FB7000233B6197
:103CC0000023FB6000237B610023BB607B68002B2B
:103CD00003DA2E4B1B687B6102E02D4B1B687B6176
:103CE0007B681B0C03F00F03BB607B689BB23B61DE
:103CF0007B6803F44013B3F5401F0AD17B6923F0BE
:103D0000E0637B61224B1B68214A23F0E063136070
:103D100021E07B6803F48013002B0ED00322BB68E4
:103D200002FA03F3FB60FB68DB437A6913407B61B3
:103D30007B6943F0E0637B610DE07B685B0D1B01F9
:103D40003A6902FA03F3DB437A6913407B617B69CA
:103D500043F0E0637B61FB78002B08D07B685B0D50
:103D60001B013A6902FA03F37A6913437B617B68AA
:103D7000002B03DA054A7B69136002E0044A7B6981
:103D8000136000BF1C37BD4680BC70471C0001405B
:103D90000400014080B582B000AF78607B68294A9A
:103DA00093421CD07B68274A934245D87B68264AB9
:103DB000934238D07B68244A93423DD87B68234A9B
:103DC000934227D07B68214A934235D87B68204AAA
:103DD00093420DD07B681F4A934212D02CE040F2F0
:103DE0000E3000F0E7F940F20E3000F005FA24E062
:103DF00040F2114000F0DEF940F2114000F0FCF911
:103E00001BE040F2124000F0D5F940F2124000F001
:103E1000F3F912E040F2134000F0CCF940F2134005
:103E200000F0EAF909E040F2144000F0C3F940F272
:103E3000144000F0E1F900E000BF00BF0837BD46C4
:103E400080BD00BF0038014000500040004C0040E1
:103E5000004400400048004080B586B000AF786064
:103E6000396000237B6100233B610023FB6000235A
:103E7000BB607B682B4A93421CD07B68294A9342E3
:103E800031D87B68284A934228D07B68264A9342DF
:103E900029D87B68254A93421BD07B68234A9342EA
:103EA00021D87B68224A934209D07B68214A9342F9
:103EB0000AD018E0032000F0C3F9786114E0022072
:103EC00000F0BEF978610FE0022000F0B9F97861E6
:103ED0000AE0022000F0B4F9786105E0022000F069
:103EE000AFF9786100E000BF3B685A087B691A446B
:103EF0003B68B2FBF3F3BB60BA684FF6F073134054
:103F00003B61BB6803F00F03FB603A69FB6842EA60
:103F100003017B6808331A468BB2136000BF183761
:103F2000BD4680BD0038014000500040004C0040BC
:103F3000004400400048004080B483B000AF786087
:103F40007B680C331B687A680C3243F400531360AF
:103F500000BF0C37BD4680BC704780B485B000AF51
:103F6000786039600023FB607B680C331B68FB6062
:103F7000FB6823F00803FB60FA683B681343FB60AF
:103F80007B680C331A46FB68136000BF1437BD46CC
:103F900080BC704780B485B000AF78603960002382
:103FA000FB607B680C331B68FB60FB6823F0040339
:103FB000FB60FA683B681343FB607B680C331A466E
:103FC000FB68136000BF1437BD4680BC704780B4E7
:103FD00083B000AF786039607B6804331A463B6871
:103FE000C3F30803136000BF0C37BD4680BC7047A5
:103FF00080B483B000AF78607B6804331B689BB2E9
:10400000C3F308039BB218460C37BD4680BC70470B
:1040100080B483B000AF78600B467B807B889B09BF
:104020009BB21A467B6813441A687B8803F01F030F
:1040300022FA03F303F00103002B01D0012300E077
:10404000002318460C37BD4680BC704780B483B04F
:1040500000AF78600B467B807B889B099BB21A4639
:104060007B6813441A687B8803F01F03012101FA5F
:1040700003F37988890989B20846796801441343B2
:104080000B6000BF0C37BD4680BC704780B483B066
:1040900000AF78600B467B807B889B099BB21A46F9
:1040A0007B6813441A687B8803F01F03012101FA1F
:1040B00003F3DB437988890989B2084679680144AA
:1040C00013400B6000BF0C37BD4680BC704780B406
:1040D00085B000AF786039600023FB600023BB60CF
:1040E0003B689B09C3F309027B6813441A683B6869
:1040F00003F01F03012101FA03F31340FB603B6847
:104100009A0D7B6813441A683B681B0C03F01F036D
:10411000012101FA03F31340BB60BB68002B04D0FC
:10412000FB68002B01D0012300E000231846143760
:10413000BD4680BC704780B483B000AF7860396002
:104140003B689A0D7B6813441A683B681B0C03F0AC
:104150001F03012101FA03F3DB433968880D7968F5
:10416000014413400B6000BF0C37BD4680BC704754
:1041700080B483B000AF0346FB80FB889B099BB2F1
:1041800003F1804303F504331968FB8803F01F0330
:1041900001229A40FB889B099BB203F1804303F5FF
:1041A0000433184641EA0203036000BF0C37BD46E2
:1041B00080BC704780B483B000AF0346FB80FB88AF
:1041C0009B099BB203F1804303F504331968FB8814
:1041D00003F01F0301229A40FB889B099BB203F165
:1041E000804303F50433184641EA0203036000BF2D
:1041F0000C37BD4680BC704780B483B000AF034627
:10420000FB80FB889B099BB203F1804303F50433D9
:104210001968FB8803F01F03012202FA03F3DA4353
:10422000FB889B099BB203F1804303F504331846D6
:1042300001EA0203036000BF0C37BD4680BC704733
:1042400090B498B000AF0346FB710023FB656E4B42
:1042500007F11C040FCB84E80F006C4A07F114032C
:1042600092E8030083E80300684A07F10C0392E830
:10427000030083E80300664B1B689B0803F00303FD
:10428000FB64FB6C022B0FD0FB6C022B64D8FB6C25
:10429000002B03D0FB6C012B03D05DE05D4BBB65B5
:1042A0005DE05C4BBB655AE0594B1B6803F48033FF
:1042B000BB64BB6CB3F5803F19D1574B1B6803F04F
:1042C00080437B647B6C002B02D1524B3B6501E049
:1042D000524B3B654E4B1B6803F400333B643B6C15
:1042E000B3F5003F05D13B6D5B083B6501E04C4BEE
:1042F0003B65474B1B689B0C03F00F037B65444BEE
:104300001B6803F00063002B03D07B6D43F01003A8
:104310007B653F4B1B6803F08043002B03D07B6D14
:1043200043F020037B657B6D0E2B03D87B6D02333E
:104330007B650BE07B6D0E2B06D97B6D3E2B03D886
:104340007B6D01337B6501E03F237B653B6D7A6DBF
:1043500002FB03F3BB6502E02E4BBB6500BF2C4B99
:104360001B681B0903F00F03FB6307F11C02FB6BC7
:1043700013441B78BB63BA6DBB6B22FA03F37B63F8
:10438000234B1B681B0A03F00703FB6307F11402AE
:10439000FB6B13441B78BB637A6BBB6B22FA03F392
:1043A0003B631B4B1B68DB0A03F00703FB6307F14E
:1043B0000C02FB6B13441B78BB637A6BBB6B22FA5A
:1043C00003F3FB62FB79032B16D801A252F823F00A
:1043D000E1430108E7430108ED430108F343010805
:1043E000BB6DFB6509E07B6BFB6506E03B6BFB652A
:1043F00003E0FB6AFB6500E000BFFB6D1846603719
:10440000BD4690BC704700BF905E0308A05E0308E5
:104410000410024000127A002C100240006CDC02F2
:1044200000093D0080B582B000AF1D4B1B681C4ADF
:1044300043F0010313601B4B1B681A4A43F08003CF
:10444000136000237B6002E07B6801337B607B6844
:1044500044F61F629342F7D9124B1B68114A23F0AE
:10446000030313600E4B1B680D4A23F0847323F47F
:10447000803313600C4B4FF41F021A60084B1B680B
:10448000074A23F480231360064B00221A60074B6F
:1044900000221A6000F00CF800BF0837BD4680BD4E
:1044A0000010024004100240081002402C1002408C
:1044B00080B500AF00F002F800BF80BD80B483B0CB
:1044C00000AF00237B6000233B60494B1B68484AD8
:1044D00043F4803313607B6801337B60444B1B687B
:1044E00003F400333B603B68002B04D17B684FF63C
:1044F000FF729342EFD13E4B1B6803F40033002B55
:1045000000D1FEE73B4B1B683A4A43F080531360EF
:10451000394B1B68384A43F440431360374B374AE2
:104520001B681360354B354A1B681360334B1B689F
:10453000324A43F480631360304B1B682F4A23F4E4
:10454000403313602D4B1B682C4A43F440331360F7
:104550002A4B1B68294A23F0904323F470131360FD
:10456000264B1B68254A43F0036343F48023136002
:104570001F4B1B681E4A43F08073136000BF1C4B27
:104580001B6803F00073002BF9D01B4B1B681A4A01
:1045900043F48033136000BF194B1B6803F480336E
:1045A000002BF9D0144B1B68134A43F400331360FB
:1045B00000BF134B1B6803F40033002BF9D00F4BE3
:1045C0001B680E4A23F0030313600C4B1B680B4A55
:1045D00043F00203136000BF084B1B6803F008039D
:1045E000002BF9D000BF00BF0C37BD4680BC704720
:1045F000001002401C1002400070004004100240F5
:104600000470004080B400AF084B00221A60074BD2
:1046100000225A60054B064ADA60044B4FF496724A
:104620009A6000BFBD4680BC704700BFAC2C002024
:10463000BC2C002080B483B000AF0346FB71154B47
:104640001968144B5B680133124A9268B3FBF2F0AD
:1046500000FB02F29B1A994202D14FF0FF3313E0A4
:104660000C4BDA680B4B5B681344FA791A70094BF0
:104670005B680133074A9268B3FBF2F101FB02F277
:104680009B1A044A5360002318460C37BD4680BC71
:10469000704700BFAC2C002080B483B000AF7860BE
:1046A000104B1A680F4B5B689A4201D1002314E04B
:1046B0000C4BDA680B4B1B6813441A787B681A7032
:1046C000084B1B680133074A9268B3FBF2F101FB08
:1046D00002F29B1A034A1360012318460C37BD46A9
:1046E00080BC7047AC2C002080B582B000AFFB1DB1
:1046F0001846FFF7D1FF0346002B03D0FB7918467D
:1047000000F0CAFC00BF0837BD4680BD80B500AFD1
:104710000448FFF76DFC0346DAB2034B1A7000BF82
:1047200080BD00BF00480040E82D002080B500AFEC
:10473000044B1B781846FFF77DFFFFF7E7FF00BF2C
:1047400080BD00BFE82D002080B500AF0448FFF712
:104750004FFC0346DAB2034B1A7000BF80BD00BFA6
:1047600000440040E82D002080B500AF044B1B78CA
:104770001846FFF75FFFFFF7E7FF00BF80BD00BFF0
:10478000E82D002080B500AF07490848FFF79FFCDF
:104790000346002B05D0FFF7C9FF05490348FFF783
:1047A000CAFC00BF80BD00BF0503050000480040F3
:1047B000050303000FB480B59CB000AF0023FB6677
:1047C00007F17C037B6007F108007B68BA6F642106
:1047D0001BF0C4FE19E007F10802FB6E13441B78BE
:1047E00019461248FFF7F3FB642010F059FCFB6EEA
:1047F0000133FB660E490D48FFF769FC0346002BA9
:1048000003D00C490948FFF796FCFB6E622B06DCCF
:1048100007F10802FB6E13441B78002BDBD100BFAD
:104820007037BD46BDE8804004B07047004400408A
:10483000070307000603060080B400AFBFF34F8FE5
:1048400000BF064BDB6803F4E0620449044B1343EA
:10485000CB60BFF34F8F00BFFEE700BF00ED00E06D
:104860000400FA0580B582B000AF7860054B1B7874
:10487000002B02D0044815F0A1FD00BF0837BD464B
:1048800080BD00BF982C0020F45E030880B582B084
:1048900000AF78600EF046FE034815F02DFD00BF16
:1048A0000837BD4680BD00BF045F030880B582B0F5
:1048B00000AF78600EF0E8FD044815F01DFDFFF72D
:1048C000BBFF00BF0837BD4680BD00BF185F0308AF
:1048D00080B582B000AF78601849786815F0E6FFBF
:1048E0000346002B03D0164815F068FD22E0154959
:1048F000786815F0DBFF0346002B03D0124B012232
:104900001A7017E01149786815F0D0FF0346002BA4
:1049100002D00F4B01221A700E49786815F0C6FFBD
:104920000346002B06D00C4B01221A700B48FFF7F0
:1049300041FF00BF0837BD4680BD00BF305F0308A0
:10494000345F0308545F0308E9470020585F0308F9
:10495000EA470020605F0308EB470020685F030818
:1049600080B582B000AF78600F49786815F09EFF7F
:104970000346002B06D00D4B01221A700C4B00226F
:104980001A700DE00B49786815F090FF0346002B74
:1049900006D0064B01221A70054B01221A7000BF87
:1049A0000837BD4680BD00BF7C5F0308E847002094
:1049B000E6470020805F030880B584B000AF7860D0
:1049C0001049786815F072FF0346002B16D007F1E6
:1049D00008031A460C49786815F05CFD0346FB6035
:1049E000FB68012B0AD1BB68FA681946074815F025
:1049F00083FCBB68DBB21846FDF78AFD00BF1037A9
:104A0000BD4680BD845F03088C5F0308985F030880
:104A100080B582B000AF78600649786815F046FF2F
:104A20000346002B02D00BF07BF800BF0837BD46D1
:104A300080BD00BFB05F030880B592B000AF786062
:104A40007949786815F032FF0346002B16D007F13C
:104A500024031A467549786815F01CFD03467B64EB
:104A60007B6C012B0AD17B6A1946714815F044FC16
:104A70007B6A9BB21946422007F0C0FF6D497868F7
:104A800015F014FF0346002B16D007F120031A4639
:104A90006949786815F0FEFC03463B643B6C012BCA
:104AA0000AD13B6A1946654815F026FC3B6A9BB261
:104AB0001946432007F0A2FF6149786815F0F6FE19
:104AC0000346002B16D007F11C031A465D4978688F
:104AD00015F0E0FC0346FB63FB6B012B0AD1FB697D
:104AE0001946594815F008FCFB699BB21946452048
:104AF00007F084FF5549786815F0D8FE0346002B6F
:104B000016D007F118031A465149786815F0C2FC0F
:104B10000346BB63BB6B012B0AD1BB6919464D48E9
:104B200015F0EAFBBB699BB21946442007F066FF0B
:104B30004949786815F0BAFE0346002B16D007F1F4
:104B400014031A464549786815F0A4FC03467B63B4
:104B50007B6B012B0AD17B691946414815F0CCFBD0
:104B60007B699BB21946462007F048FF3D497868AB
:104B700015F09CFE0346002B16D007F110031A46D1
:104B80003949786815F086FC03463B633B6B012B83
:104B90000AD13B691946354815F0AEFB3B699BB21B
:104BA0001946482007F02AFF3149786815F07EFE43
:104BB0000346002B16D007F10C031A462D497868DE
:104BC00015F068FC0346FB62FB6A012B0AD1FB6807
:104BD0001946294815F090FBFB689BB219464720FF
:104BE00007F00CFF2549786815F060FE0346002B9E
:104BF00016D007F108031A462149786815F04AFCD7
:104C00000346BB62BB6A012B0AD1BB6819461D482B
:104C100015F072FBBB689BB21946492007F0EEFE07
:104C200000BF4837BD4680BDB45F0308BC5F0308C2
:104C3000C45F0308D05F0308D85F0308E45F03087C
:104C4000F05F0308F45F0308FC5F030808600308D3
:104C50000C60030814600308206003082460030844
:104C60002C600308386003083C60030844600308B4
:104C700050600308546003085C6003086860030820
:104C80006C6003087460030880B582B000AF786080
:104C90002A49786815F00AFE0346002B11D040F22D
:104CA00005312748FFF7F2F910F084FB40F2053197
:104CB0002348FFF7CBF9234B00221A70FFF7BCFD06
:104CC00038E02149786815F0F1FD0346002B09D042
:104CD000FDF778F81B4B00221A700EF0B7FBFFF7B8
:104CE000ABFD27E01949786815F0E0FD0346002B7D
:104CF00004D00EF06FFBFFF79FFD1BE014497868AE
:104D000015F0D4FD0346002B14D040F205310C48B9
:104D1000FFF7BCF910F04EFB0E4800F01DF840F212
:104D200005310748FFF792F9064B00221A70FFF78A
:104D300083FD00BF0837BD4680BD00BF806003080B
:104D400000480040982C0020846003088860030815
:104D5000906003089860030880B5ADF5C35D00AFAF
:104D600007F50663A3F65C0318604FF0006307F5D0
:104D7000C25202F11C02136007F50663A3F58A63B1
:104D800000221A6004334FF47F720021184615F098
:104D900061FA002307F5C25202F118021360C7E05E
:104DA00007F5C25303F118031A6813461B019B1A37
:104DB0005B00664A1A4407F50663A3F65C031968AC
:104DC0001046FCF711FC0346002B40F0A68007F5C7
:104DD0000663A3F6540300221A6004334FF47F7273
:104DE0000021184615F036FA07F50663A3F65C02B3
:104DF00007F12003143B12685549184615F02AFBA9
:104E000007F12001143907F50263103B012218460F
:104E100003F0A4FF034607F5C25202F11702137014
:104E200007F5C25303F117031B78002B17D107F5C1
:104E3000C25303F11703197807F5066303F57C6382
:104E4000D3E9002393B20A464249434815F054FA85
:104E50004FF000614FF601600CF0B4FB01E0FF235E
:104E60006EE007F58463143B07F58461103907F59C
:104E7000026010384FF4806204F0AAFA034607F586
:104E8000C25202F11702137007F5C25303F1170360
:104E90001B78002B15D107F5C25303F117031A78BD
:104EA00007F50663A3F254431B682A492B4815F003
:104EB00023FA07F50663A3F254431B68002B2AD09C
:104EC00001E0FE233CE007F50663A3F254431B68B0
:104ED0009BB2194607F58463103B07F5C25202F1F5
:104EE0001C02126818460CF005FB0346002B10D07C
:104EF00007F50663A3F254431B6807F5C25202F19B
:104F00001C021268134407F5C25202F11C0213601E
:104F1000A7E7FD2314E0002312E007F5C25303F1D5
:104F200018031B68013307F5C25202F1180213601F
:104F300007F5C25303F118031B683B2B7FF730AF13
:104F4000184607F5C357BD4680BD00BF3C6C002026
:104F5000E8600308B0600308B8600308D060030885
:104F600080B584B000AF78600B23BB600C4815F0AF
:104F700025FA0023FB600AE00A4AFB6852F8333046
:104F80001946094815F0B8F9FB680133FB60FA6867
:104F9000BB689A42F0DB00BF00BF1037BD4680BD42
:104FA00034610308440200204861030880B58AB0D8
:104FB00000AF78600F49104815F09EF90023BB60E0
:104FC00007F10C0300221A605A609A60DA601A61D5
:104FD0005A611A8307F1080318460EF073FA07F1B5
:104FE000080302331946054815F086F900BF283733
:104FF000BD4680BD24020020506103085C610308A7
:1050000080B483B000AF786002E07B6801337B60DE
:105010007B681B78202BF8D07B6818460C37BD4680
:1050200080BC704780B586B000AF78600B233B61D1
:1050300000237B6125E0174A7B6952F8333018461C
:10504000FCF73EFC0346FB60124A7B6952F83330A2
:10505000FA681946786815F08FFA0346002B0DD1CF
:10506000FB687A6813441846FFF7CAFFB860094A1C
:105070007B69DB0013445B68B86898477B69013340
:105080007B617A693B699A42D5DB00BF00BF183764
:10509000BD4680BD4402002080B582B000AF03460B
:1050A000FB71FB797E2B2BD8FB791F2B0FD8164B6E
:1050B0001B78002B17D0144B00221A701348FFF7EF
:1050C000B1FF40220021114815F0C4F80BE00E4B4F
:1050D0001B7819460D4AFB7953540B4B1B7801334F
:1050E000DAB2094B1A70084B1B783F2B09D9064BD3
:1050F00000221A7040220021044815F0ABF800E0AD
:1051000000BF0837BD4680BD2C2E0020EC2D0020AE
:1051100080B58AB000AF03463960FB8000237B6115
:10512000FB887F2B02D8FB88FB8446E03B68002B82
:1051300004D0244B9B685B087B6101E000237B610A
:10514000204B9B685B08FB61FB699B08013BFB6193
:1051500000233B6210237B8323E0FA693B6AD31A66
:105160005B083A6A13443B61164B5A683B699B00E3
:105170001A447B69D11807F10C03042218460EF07B
:105180003FFBBB89FA889A420FD0BB89FA889A42C2
:1051900002D93B693B6201E03B69FB617B8B013BD0
:1051A0007B837B8B002BD8D100E000BF7B8B002B57
:1051B00001D0FB8900E00023FB84FB8C18462837D4
:1051C000BD4680BDB87F002080B485B000AF0346E7
:1051D000FB800023FB6002E0FB680133FB600F4AA9
:1051E000FB6832F81330002B06D00C4AFB6832F80B
:1051F0001330FA889A42EFD1084AFB6832F813302C
:10520000002B04D0064AFB6832F8133000E0FB881C
:1052100018461437BD4680BC704700BFD07F0308D6
:10522000B081030880B487B000AFF860B9607A60DD
:10523000FB687B61BB683B6107E03A69531C3B61DB
:105240007B69591C796112781A707B685A1E7A60E2
:10525000002BF2D100BF00BF1C37BD4680BC704799
:1052600080B487B000AFF860B9607A60FB687B619A
:1052700005E07B695A1C7A61BA68D2B21A707B6801
:105280005A1E7A60002BF4D100BF00BF1C37BD4608
:1052900080BC704780B489B000AFF860B9607A60B4
:1052A000FB68FB61BB68BB6100237B6100BF7B685F
:1052B0005A1E7A60002B0DD0FB695A1CFA611B78CC
:1052C0001946BB695A1CBA611B78CB1A7B617B6992
:1052D000002BECD07B6918462437BD4680BC704754
:1052E00080B483B000AF7860396002E07B6801333E
:1052F0007B607B681B78002B05D07B681B781A4687
:105300003B689342F2D17B681B7818460C37BD4648
:1053100080BC70472DE9B04388B002AF78600023AD
:10532000FB727B6803F580531B79002B56D07B689A
:1053300003F582531033D3E90023C7E904237B68C4
:1053400003F580535878796801230093D7E9042343
:1053500011F000FD0346002B02D00123FB723DE05B
:105360007B6803F5805300221A717B6803F5825332
:1053700053E90223D7E90401841A61EB03057B6832
:1053800003F58153103353E90223944275EB030371
:1053900024D27B6803F58053DB78FB601BE07B68DD
:1053A00003F58153103353E90223D7E9040110EBCD
:1053B000020841EB0309C7E904897B6803F58053C0
:1053C0005878796801230093D7E9042311F0C2FCCF
:1053D000FB68013BFB60FB68012BE0D8FB7A1846B9
:1053E0001837BD46BDE8B08380B588B002AFF8601D
:1053F000C7E900230023FB75FB6803F582531033D4
:10540000D3E90023D7E90001994208BF904226D092
:10541000F868FFF77FFF0346FB75FB7D002B1ED16D
:10542000FB6803F580535878F96801230093D7E9A6
:10543000002311F06DFC0346002B07D04FF0FF3224
:105440004FF00003C7E900230123FB75FB6803F558
:10545000825310331946D7E90023C1E90023FB7DAD
:1054600018461837BD4680BDB0B586B002AF78602B
:105470007868FFF74FFF0346FB73FB7B002B40F080
:10548000DE807B6803F580531B78032B40F0C980D6
:105490007B6803F580535B79012B40F0C28078680C
:1054A0007B6803F580535B891A460021FFF7D8FE1D
:1054B0007B68552283F8FE217B68AA2283F8FF21AE
:1054C0007B6852221A707B6852225A707B68612274
:1054D0009A707B684122DA707B68722283F8E4213B
:1054E0007B68722283F8E5217B68412283F8E621FC
:1054F0007B68612283F8E7217B6803F5815353E9D8
:105500000223D2B27B6883F8E8217B6803F58153DC
:1055100053E9022393B21B0A9BB2DAB27B6883F889
:10552000E9217B6803F5815353E902014FF0000242
:105530004FF00003020C42EA01420B0CD2B27B682E
:1055400083F8EA217B6803F5815353E902014FF0A8
:1055500000024FF00003020E42EA01220B0ED2B20B
:105560007B6883F8EB217B6803F580531033D3E924
:105570000023D2B27B6883F8EC217B6803F580536B
:105580001033D3E9002393B21B0A9BB2DAB27B68D3
:1055900083F8ED217B6803F580531033D3E90001D4
:1055A0004FF000024FF00003020C42EA01420B0CE4
:1055B000D2B27B6883F8EE217B6803F58053103309
:1055C000D3E900014FF000024FF00003020E42EA5F
:1055D00001220B0ED2B27B6883F8EF217B6803F5C2
:1055E00081531033D3E90023541C43F100057B6839
:1055F00003F582531033C3E900457B6803F58053FC
:10560000587879687B6803F582531033D3E9002317
:105610000124009411F09EFB7B6803F58053002267
:105620005A717B6803F580535B780022002118468D
:1056300011F0B2FB0346002B01D00123FB73FB7B6F
:1056400018461037BD46B0BD2DE9B00F89B000AF88
:10565000F861C7E90423D7E90423911E396043F1B7
:10566000FF337B60D7E90023C7E90423FB6903F517
:105670008153D3E90023B2F1020843F1FF39D7E99E
:105680000423424573EB090306D34FF000034FF0A8
:105690000004C7E902341EE0FB6903F580539B78E0
:1056A000DBB200229A4693463B690BFB03F27B690F
:1056B0000AFB03F313443A69A2FB0A452B441D4637
:1056C000FB6903F58253103353E90223A118B96033
:1056D00045EB0303FB60D7E9022310461946243744
:1056E000BD46BDE8B00F70472DE9B04FB4B000AF74
:1056F000C7F8B400C7E92A23D7E92A23022A73F19D
:1057000000030AD3D7F8B43003F58153D3E900017D
:10571000D7E92A2382428B4106D34FF001024FF092
:105720000003C7E93223C7E14FF0FF324FF0000317
:10573000C7E93223D7F8B43003F580531B78032B25
:1057400000F00A81032B00F3A981012B03D0022B67
:1057500000F0AB80A2E1D7F8A830C7F8C030D7F886
:10576000C0305A08D7F8C0301344C7F8C030D7F853
:10577000B43003F5825353E90201D7F8B43003F58E
:1057800080535B891A46D7F8C030B3FBF2F300228E
:10579000C7F8A030C7F8A420D7E928894346C31822
:1057A000C7F898304B4641EB0303C7F89C30D7E964
:1057B0002623D7F8B400FFF717FE0346002B40F06E
:1057C0007481D7F8C0305A1CC7F8C020D7F8B4206D
:1057D00002F580525289B3FBF2F101FB02F29B1AEF
:1057E000D7F8B420D35CC7F8BC30D7F8B43003F591
:1057F000825353E90223D7F8B41001F58051498947
:105800000846D7F8C010B1FBF0F10020C7F890109F
:10581000C7F89400D7E9248941465118C7F8881081
:10582000494643EB0101C7F88C10D7E92223D7F88A
:10583000B400FFF7D9FD0346002B40F03881D7F8BC
:10584000B43003F580535B891A46D7F8C030B3FBF8
:10585000F2F101FB02F29B1AD7F8B420D35C1B02D1
:105860001A46D7F8BC301343C7F8BC30D7E92A230F
:1058700002F00104002554EA050306D0D7F8BC3035
:105880001B0900229A4693460CE0D7F8BC30002250
:10589000C7F88030C7F88420D7F88030C3F30B0AEC
:1058A0004FF0000BC7E932AB06E1D7F8B43003F58F
:1058B000825353E90245D7F8B43003F580535B892E
:1058C0005B089BB29BB20022BB67FA67D7E91E2335
:1058D000D7E92A01FBF75EFC02460B4614EB0208EF
:1058E00045EB030942464B46D7F8B400FFF77CFD71
:1058F0000346002B40F0DD80D7E92A239118396157
:105900005B417B61D7E90401D7F8B43003F58053DC
:105910005B899BB200223B677A67D7E91C23FBF7C0
:1059200039FCD7F8B4108B18C7F8C430D7F8C43096
:1059300001331B781B021AB2D7F8C4301B781BB294
:1059400013431BB29BB29BB20022BB60FA60D7E943
:105950000234C7E93234AFE0D7F8B43003F58253EC
:1059600053E90245D7F8B43003F580535B899B08AF
:105970009BB29BB20022BB66FA66D7E91A23D7E92D
:105980002A01FBF707FC02460B46A118396645EBD6
:1059900003037B66D7E91823D7F8B400FFF724FD8B
:1059A0000346002B40F08780D7E92A234FF0000000
:1059B0004FF00001990041EA92719000D7F8B4309D
:1059C00003F580535B899BB20022BB65FA65D7E97A
:1059D0001623FBF7DFFBD7F8B4108B18C7F8C430D9
:1059E000D7F8C43003331B78DBB200223B657A65FD
:1059F000D7E914120B461B0AFB640B461B06BB645B
:105A0000D7F8C43002331B78DBB200223B647A64DF
:105A10004FF000024FF00003D7E9104529460B0470
:105A200020462946044643EA144301460A04D7E9BE
:105A3000120104461443BC631943F963D7F8C43018
:105A400001331B781B02DA173B637A63D7E90E3404
:105A50001846D7E90C120D462843B8622346134373
:105A6000FB62D7F8C4301B78DBB200223B627A625B
:105A7000D7E90A341846D7E908120D462843B86119
:105A800023461343FB61BB6923F070433B60002353
:105A90007B60D7E90034C7E932340DE04FF00102F2
:105AA0004FF00003C7E9322306E000BF04E000BF67
:105AB00002E000BF00E000BFD7E9322310461946DC
:105AC000D037BD46BDE8B08F2DE9B04FB0B000AFC4
:105AD000C7F8AC00C7E92823D7E92823022A73F1C5
:105AE00000030AD3D7F8AC3003F58153D3E90001A2
