:020000040801F1
:1000000000000120C95A02083D29010849290108B8
:100010004F290108552901085B290108000000004B
:10002000000000000000000000000000612901083D
:100030006D290108000000007929010885290108BF
:10004000115B0208115B0208115B0208115B0208D8
:10005000115B0208115B0208115B0208115B0208C8
:10006000115B0208115B0208115B0208115B0208B8
:10007000115B0208115B0208115B0208115B0208A8
:10008000115B0208115B0208115B0208115B020898
:1000900091290108115B0208115B0208115B02083B
:1000A000115B0208E1540208115B0208115B0208AF
:1000B000C9530208115B0208115B0208115B0208B8
:1000C000115B0208115B0208115B0208115B020858
:1000D000115B0208ED53020859540208893E0108D9
:1000E000115B0208115B0208115B0208115B020838
:1000F000115B0208115B0208115B0208115B020828
:10010000115B0208115B0208115B0208115B020817
:10011000115B0208115B0208115B0208D9E60108B5
:10012000115B0208115B0208115B0208115B0208F7
:1001400010B5054C237833B9044B13B10448AFF311
:1001500000800123237010BD7020002000000000EB
:100160006056030808B5034B1BB103490348AFF3BE
:10017000008008BD000000007420002060560308C5
:1001800081F0004102E000BF83F0004330B54FEA48
:1001900041044FEA430594EA050F08BF90EA020FB5
:1001A0001FBF54EA000C55EA020C7FEA645C7FEA48
:1001B000655C00F0E2804FEA5454D4EB5555B8BF6B
:1001C0006D420CDD2C4480EA020281EA030382EADC
:1001D000000083EA010180EA020281EA0303362D6E
:1001E00088BF30BD11F0004F4FEA01314FF4801C41
:1001F0004CEA113102D0404261EB410113F0004F53
:100200004FEA03334CEA133302D0524263EB430309
:1002100094EA050F00F0A780A4F10104D5F1200EA7
:100220000DDB02FA0EFC22FA05F2801841F1000102
:1002300003FA0EF2801843FA05F359410EE0A5F1D6
:1002400020050EF1200E012A03FA0EFC28BF4CF007
:10025000020C43FA05F3C01851EBE37101F00045BD
:1002600007D54FF0000EDCF1000C7EEB00006EEBCA
:100270000101B1F5801F1BD3B1F5001F0CD3490854
:100280005FEA30004FEA3C0C04F101044FEA4452AB
:1002900012F5800F80F09A80BCF1004F08BF5FEA32
:1002A000500C50F1000041EB045141EA050130BD12
:1002B0005FEA4C0C404141EB0101013C28BFB1F524
:1002C000801FE9D291F0000F04BF01460020B1FA6F
:1002D00081F308BF2033A3F10B03B3F120020CDA42
:1002E0000C3208DD02F1140CC2F10C0201FA0CF020
:1002F00021FA02F10CE002F11402D8BFC2F1200C85
:1003000001FA02F120FA0CFCDCBF41EA0C0190403A
:10031000E41AA2BF01EB0451294330BD6FEA040483
:100320001F3C1CDA0C340EDC04F11404C4F120026E
:1003300020FA04F001FA02F340EA030021FA04F380
:1003400045EA030130BDC4F10C04C4F1200220FAD7
:1003500002F001FA04F340EA0300294630BD21FA15
:1003600004F0294630BD94F0000F83F4801306BFDB
:1003700081F480110134013D4EE77FEA645C18BFCF
:100380007FEA655C29D094EA050F08BF90EA020F66
:1003900005D054EA000C04BF1946104630BD91EA5E
:1003A000030F1EBF0021002030BD5FEA545C05D161
:1003B0004000494128BF41F0004130BD14F58004A0
:1003C0003CBF01F5801130BD01F0004545F0FE4114
:1003D00041F470014FF0000030BD7FEA645C1ABF49
:1003E000194610467FEA655C1CBF0B46024650EA80
:1003F000013406BF52EA033591EA030F41F40021AC
:1004000030BD00BF90F0000F04BF0021704730B531
:100410004FF4806404F132044FF000054FF0000106
:1004200050E700BF90F0000F04BF0021704730B5C7
:100430004FF4806404F1320410F0004548BF40429C
:100440004FF000013EE700BF42004FEAE2014FEAF1
:1004500031014FEA02701FBF12F07F4393F07F4FCC
:1004600081F06051704732F07F4208BF704793F0CF
:100470007F4F04BF41F40021704730B54FF46074E2
:1004800001F0004521F000411CE700BF50EA0102E5
:1004900008BF704730B54FF000050AE050EA01028E
:1004A00008BF704730B511F0004502D5404261EBFE
:1004B00041014FF4806404F132045FEA915C3FF43F
:1004C000D8AE4FF003025FEADC0C18BF03325FEADC
:1004D000DC0C18BF033202EBDC02C2F1200300FA8D
:1004E00003FC20FA02F001FA03FE40EA0E0021FAB2
:1004F00002F11444BDE600BF70B54FF0FF0C4CF4A0
:10050000E06C1CEA11541DBF1CEA135594EA0C0F51
:1005100095EA0C0F00F0DEF82C4481EA030621EA8C
:100520004C5123EA4C5350EA013518BF52EA0335C7
:1005300041F4801143F4801338D0A0FB02CE4FF079
:100540000005E1FB02E506F00042E0FB03E54FF0A9
:100550000006E1FB03569CF0000F18BF4EF0010EA1
:10056000A4F1FF04B6F5007F64F5407404D25FEA9D
:100570004E0E6D4146EB060642EAC62141EA555150
:100580004FEAC52040EA5E504FEACE2EB4F1FD0C92
:1005900088BFBCF5E06F1ED8BEF1004F08BF5FEA10
:1005A000500E50F1000041EB045170BD06F00046C2
:1005B00046EA010140EA020081EA0301B4EB5C046F
:1005C000C2BFD4EB0C0541EA045170BD41F4801167
:1005D0004FF0000E013C00F3AB8014F1360FDEBF8C
:1005E000002001F0004170BDC4F10004203C35DA68
:1005F0000C341BDC04F11404C4F1200500FA05F3EB
:1006000020FA04F001FA05F240EA020001F000428B
:1006100021F0004110EBD37021FA04F642EB060101
:100620005EEA430E08BF20EAD37070BDC4F10C042B
:10063000C4F1200500FA04F320FA05F001FA04F2EF
:1006400040EA020001F0004110EBD37041F10001DB
:100650005EEA430E08BF20EAD37070BDC4F12005E6
:1006600000FA05F24EEA020E20FA04F301FA05F24E
:1006700043EA020321FA04F001F0004121FA04F2F6
:1006800020EA020000EBD3705EEA430E08BF20EAC6
:10069000D37070BD94F0000F0FD101F00046400000
:1006A00041EB010111F4801F08BF013CF7D041EA82
:1006B000060195F0000F18BF704703F00046520086
:1006C00043EB030313F4801F08BF013DF7D043EA57
:1006D0000603704794EA0C0F0CEA135518BF95EA0D
:1006E0000C0F0CD050EA410618BF52EA4306D1D194
:1006F00081EA030101F000414FF0000070BD50EAB3
:10070000410606BF1046194652EA430619D094EA3C
:100710000C0F02D150EA013613D195EA0C0F05D126
:1007200052EA03361CBF104619460AD181EA03017A
:1007300001F0004141F0FE4141F470014FF0000032
:1007400070BD41F0FE4141F4780170BD70B54FF0CD
:10075000FF0C4CF4E06C1CEA11541DBF1CEA13554D
:1007600094EA0C0F95EA0C0F00F0A7F8A4EB05042F
:1007700081EA030E52EA03354FEA013100F0888026
:100780004FEA03334FF0805545EA131343EA1263EF
:100790004FEA022245EA111545EA10654FEA0026A4
:1007A0000EF000419D4208BF964244F1FD0404F55D
:1007B000407402D25B084FEA3202B61A65EB0305B9
:1007C0005B084FEA32024FF480104FF4002CB6EB76
:1007D000020E75EB030E22BFB61A754640EA0C00F6
:1007E0005B084FEA3202B6EB020E75EB030E22BF36
:1007F000B61A754640EA5C005B084FEA3202B6EB77
:10080000020E75EB030E22BFB61A754640EA9C0035
:100810005B084FEA3202B6EB020E75EB030E22BF05
:10082000B61A754640EADC0055EA060E18D04FEAC3
:10083000051545EA16754FEA06164FEAC30343EA63
:1008400052734FEAC2025FEA1C1CC0D111F4801F30
:100850000BD141EA00014FF000004FF0004CB6E729
:1008600011F4801F04BF01430020B4F1FD0C88BFC8
:10087000BCF5E06F3FF6AFAEB5EB030C04BFB6EBD3
:10088000020C5FEA500C50F1000041EB045170BDC6
:100890000EF0004E4EEA113114EB5C04C2BFD4EBF3
:1008A0000C0541EA045170BD41F480114FF0000E77
:1008B000013C90E645EA060E8DE60CEA135594EAF3
:1008C0000C0F08BF95EA0C0F3FF43BAF94EA0C0FF6
:1008D0000AD150EA01347FF434AF95EA0C0F7FF46B
:1008E00025AF104619462CE795EA0C0F06D152EABF
:1008F00003353FF4FDAE1046194622E750EA4106A3
:1009000018BF52EA43067FF4C5AE50EA41047FF4B3
:100910000DAF52EA43057FF4EBAE12E74FF0FF3C18
:1009200006E000BF4FF0010C02E000BF4FF0010CE9
:100930004DF804CD4FEA410C7FEA6C5C4FEA430C62
:1009400018BF7FEA6C5C1BD001B050EA410C0CBFB1
:1009500052EA430C91EA030F02BF90EA020F002013
:10096000704710F1000F91EA030F58BF994208BF7A
:1009700090422CBFD8176FEAE37040F00100704737
:100980004FEA410C7FEA6C5C02D150EA013C07D18E
:100990004FEA430C7FEA6C5CD6D152EA033CD3D0D9
:1009A0005DF8040B704700BF8446104662468C46D3
:1009B0001946634600E000BF01B5FFF7B7FF002806
:1009C00048BF10F1000F01BD4DF808EDFFF7F4FF2F
:1009D0000CBF012000205DF808FB00BF4DF808EDBA
:1009E000FFF7EAFF34BF012000205DF808FB00BFDD
:1009F0004DF808EDFFF7E0FF94BF012000205DF8FF
:100A000008FB00BF4DF808EDFFF7CEFF94BF0120B3
:100A100000205DF808FB00BF4DF808EDFFF7C4FFAC
:100A200034BF012000205DF808FB00BF4A0011D24E
:100A300012F5001211D20DD56FF47873B3EB625238
:100A40000ED44FEAC12343F0004343EA505323FA44
:100A500002F070474FF00000704750EA013002D1B9
:100A60004FF0FF3070474FF0000070474FEA4102EF
:100A7000B2F1E04324BFB3F5001CDCF1FE5C0DD9FC
:100A800001F0004C4FEAC0024CEA5070B2F1004F46
:100A900040EB830008BF20F00100704711F0804F49
:100AA00021D113F13872BCBF01F00040704741F40E
:100AB00080114FEA5252C2F11802C2F1200C10FA12
:100AC0000CF320FA02F018BF40F001004FEAC123F6
:100AD0004FEAD32303FA0CFC40EA0C0023FA02F39A
:100AE0004FEA4303CCE77FEA625307D150EA013370
:100AF0001EBF4FF0FE4040F44000704701F0004040
:100B000040F0FE4040F40000704700BF80F000401D
:100B100002E000BF81F0004142001FBF5FEA4103D5
:100B200092EA030F7FEA226C7FEA236C6AD04FEAD5
:100B30001262D2EB1363C1BFD2184140484041401A
:100B4000B8BF5B42192B88BF704710F0004F40F4CC
:100B5000000020F07F4018BF404211F0004F41F4E8
:100B6000000121F07F4118BF494292EA030F3FD0B4
:100B7000A2F1010241FA03FC10EB0C00C3F12003C7
:100B800001FA03F100F0004302D5494260EB400056
:100B9000B0F5000F13D3B0F1807F06D340084FEAC1
:100BA000310102F10102FE2A51D2B1F1004F40EBB6
:100BB000C25008BF20F0010040EA0300704749001E
:100BC00040EB0000013A28BFB0F5000FEDD2B0FABB
:100BD00080FCACF1080CB2EB0C0200FA0CF0AABFDE
:100BE00000EBC25052421843BCBFD040184370477C
:100BF00092F0000F81F4000106BF80F40000013282
:100C0000013BB5E74FEA41037FEA226C18BF7FEA58
:100C1000236C21D092EA030F04D092F0000F08BF9A
:100C20000846704790EA010F1CBF0020704712F081
:100C30007F4F04D1400028BF40F00040704712F1C0
:100C400000723CBF00F50000704700F0004343F025
:100C5000FE4040F4000070477FEA226216BF08465B
:100C60007FEA23630146420206BF5FEA412390EA1E
:100C7000010F40F4800070474FF0000304E000BF14
:100C800010F0004348BF40425FEA000C08BF7047C5
:100C900043F0964301464FF000001CE050EA010289
:100CA00008BF70474FF000030AE000BF50EA01029E
:100CB00008BF704711F0004302D5404261EB41018B
:100CC0005FEA010C02BF84460146002043F0B643B0
:100CD00008BFA3F18053A3F50003BCFA8CF2083AD5
:100CE000A3EBC25310DB01FA02FC634400FA02FCDE
:100CF000C2F12002BCF1004F20FA02F243EB0200E5
:100D000008BF20F00100704702F1200201FA02FC46
:100D1000C2F1200250EA4C0021FA02F243EB020039
:100D200008BF20EADC7070474FF0FF0C1CEAD0527D
:100D30001EBF1CEAD15392EA0C0F93EA0C0F6FD03E
:100D40001A4480EA010C400218BF5FEA41211ED01C
:100D50004FF0006343EA501043EA5111A0FB013108
:100D60000CF00040B1F5000F3EBF490041EAD371DD
:100D70005B0040EA010062F17F02FD2A1DD8B3F159
:100D8000004F40EBC25008BF20F00100704790F0C8
:100D9000000F0CF0004C08BF49024CEA502040EA1A
:100DA00051207F3AC2BFD2F1FF0340EAC2507047E0
:100DB00040F400004FF00003013A5DDC12F1190F1E
:100DC000DCBF00F000407047C2F10002410021FA90
:100DD00002F1C2F1200200FA02FC5FEA310040F1A8
:100DE000000053EA4C0308BF20EADC70704792F021
:100DF000000F00F0004C02BF400010F4000F013A59
:100E0000F9D040EA0C0093F0000F01F0004C02BF53
:100E1000490011F4000F013BF9D041EA0C018FE7C2
:100E20000CEAD15392EA0C0F18BF93EA0C0F0AD0C8
:100E300030F0004C18BF31F0004CD8D180EA0100EE
:100E400000F00040704790F0000F17BF90F0004F87
:100E5000084691F0000F91F0004F14D092EA0C0F69
:100E600001D142020FD193EA0C0F03D14B0218BFFC
:100E7000084608D180EA010000F0004040F0FE4042
:100E800040F40000704740F0FE4040F440007047DE
:100E90004FF0FF0C1CEAD0521EBF1CEAD15392EA5D
:100EA0000C0F93EA0C0F69D0A2EB030280EA010C4D
:100EB00049024FEA402037D04FF0805343EA1111E6
:100EC00043EA10130CF000408B4238BF5B0042F144
:100ED0007D024FF4000C8B4224BF5B1A40EA0C00E9
:100EE000B3EB510F24BFA3EB510340EA5C00B3EB1B
:100EF000910F24BFA3EB910340EA9C00B3EBD10F09
:100F000024BFA3EBD10340EADC001B0118BF5FEA5A
:100F10001C1CE0D1FD2A3FF650AF8B4240EBC25083
:100F200008BF20F0010070470CF0004C4CEA502044
:100F30007F32C2BFD2F1FF0340EAC250704740F493
:100F400000004FF00003013A37E792F0000F00F085
:100F5000004C02BF400010F4000F013AF9D040EA03
:100F60000C0093F0000F01F0004C02BF490011F497
:100F7000000F013BF9D041EA0C0195E70CEAD1538F
:100F800092EA0C0F08D142027FF47DAF93EA0C0F76
:100F90007FF470AF084676E793EA0C0F04D14B025A
:100FA0003FF44CAF08466EE730F0004C18BF31F00C
:100FB000004CCAD130F000427FF45CAF31F0004306
:100FC0007FF43CAF5FE700BF4FF0FF3C06E000BF9F
:100FD0004FF0010C02E000BF4FF0010C4DF804CDC2
:100FE0004FEA40024FEA41037FEA226C18BF7FEAD2
:100FF000236C11D001B052EA530C18BF90EA010FD4
:1010000058BFB2EB030088BFC81738BF6FEAE17062
:1010100018BF40F0010070477FEA226C02D15FEAFE
:10102000402C05D17FEA236CE4D15FEA412CE1D06A
:101030005DF8040B704700BF844608466146FFE731
:101040000FB5FFF7C9FF002848BF10F1000F0FBD13
:101050004DF808EDFFF7F4FF0CBF012000205DF80C
:1010600008FB00BF4DF808EDFFF7EAFF34BF012091
:1010700000205DF808FB00BF4DF808EDFFF7E0FF2A
:1010800094BF012000205DF808FB00BF4DF808ED7B
:10109000FFF7D2FF94BF012000205DF808FB00BFDE
:1010A0004DF808EDFFF7C8FF34BF012000205DF8C0
:1010B00008FB00BF42000ED2B2F1FE4F0BD34FF03F
:1010C0009E03B3EB126209D44FEA002343F00043BE
:1010D00023FA02F070474FF00000704712F1610FE1
:1010E00001D1420202D14FF0FF3070474FF00000B3
:1010F000704700BF7BB972B90029BEBF00204FF016
:10110000004106E008BF00281CBF6FF000414FF00F
:10111000FF3000F0BFB9ADF1080C6DE904CE002935
:1011200009DB002B1ADB00F04DF8DDF804E0DDE907
:10113000022304B07047404261EB4101002B1BDBEE
:1011400000F040F8DDF804E0DDE9022304B040429D
:1011500061EB4101524263EB43037047524263EB40
:10116000430300F02FF8DDF804E0DDE9022304B0CA
:10117000404261EB41017047524263EB430300F090
:1011800021F8DDF804E0DDE9022304B0524263EB0C
:101190004303704753B94AB9002908BF00281CBF50
:1011A0004FF0FF314FF0FF3000F074B9ADF1080C93
:1011B0006DE904CE00F006F8DDF804E0DDE9022375
:1011C00004B070472DE9F047089E0D460446884656
:1011D000002B4DD18A42944668D9B2FA82F252B1BC
:1011E00001FA02F3C2F1200120FA01F10CFA02FC2B
:1011F00041EA030894404FEA1C45210CB8FBF5FE78
:101200001FFA8CF705FB1E8341EA03430EFB07F12F
:1012100099420BD91CEB03030EF1FF3080F01E81C5
:10122000994240F21B81AEF1020E63445B1AA4B2F4
:10123000B3FBF5F005FB103344EA034400FB07F76A
:10124000A7420AD91CEB040400F1FF3380F00881A7
:10125000A74240F2058164440238E41B40EA0E4094
:1012600000211EB1D4400023C6E90043BDE8F08749
:101270008B4208D9002E00F0EE800021C6E900055F
:101280000846BDE8F087B3FA83F100294AD1AB42A2
:1012900002D3824200F2F980841A65EB0303012035
:1012A0009846002EE2D0C6E90048DFE702B9FFDE2B
:1012B000B2FA82F2002A40F09180A1EB0C054FEACD
:1012C0001C471FFA8CFE0121B5FBF7F307FB1350F7
:1012D000250C45EA00450EFB03F0A84208D91CEB9B
:1012E000050503F1FF3802D2A84200F2CB80434645
:1012F0002D1AA4B2B5FBF7F007FB105544EA0544DC
:101300000EFB00FEA64508D91CEB040400F1FF35D6
:1013100002D2A64500F2BB802846A4EB0E0440EAA8
:1013200003409EE7C1F120078B4022FA07FC4CEAFC
:10133000030C20FA07F405FA01F31C43FD404FEAC1
:101340001C4900FA01F3B5FBF9F8200C1FFA8CFEDA
:1013500009FB185540EA054508FB0EF0A84202FAC1
:1013600001F20BD91CEB050508F1FF3A80F08880EB
:10137000A84240F28580A8F1020865442D1AA4B263
:10138000B5FBF9F009FB105544EA054500FB0EFEDC
:10139000AE4508D91CEB050500F1FF346CD2AE4513
:1013A0006AD90238654440EA0840A0FB0294A5EBE4
:1013B0000E05A542C846A64656D353D05EB1B3EB40
:1013C000080265EB0E0505FA07F722FA01F3CD4096
:1013D0001F43C6E900750021BDE8F087C2F1200374
:1013E00020FA03F10CFA02FC25FA03F395400D43B1
:1013F0004FEA1C471FFA8CFEB3FBF7F107FB1130D5
:101400002B0C43EA004301FB0EF0984204FA02F46D
:1014100008D91CEB030301F1FF382FD298422DD9D4
:10142000023963441B1AADB2B3FBF7F007FB10336C
:1014300045EA034500FB0EF3AB4208D91CEB05055A
:1014400000F1FF3816D2AB4214D902386544ED1AC8
:1014500040EA014138E73146304607E78646E5E68F
:101460001846FAE64B45A9D2B9EB020864EB0C0E1C
:101470000138A3E74046EAE7204694E74146D1E732
:10148000D0467BE7023B654432E7084609E76444FF
:10149000023842E7704700BF844641EA000313F078
:1014A00003036DD1403A41D351F8043B40F8043B6B
:1014B00051F8043B40F8043B51F8043B40F8043B2E
:1014C00051F8043B40F8043B51F8043B40F8043B1E
:1014D00051F8043B40F8043B51F8043B40F8043B0E
:1014E00051F8043B40F8043B51F8043B40F8043BFE
:1014F00051F8043B40F8043B51F8043B40F8043BEE
:1015000051F8043B40F8043B51F8043B40F8043BDD
:1015100051F8043B40F8043B51F8043B40F8043BCD
:1015200051F8043B40F8043B403ABDD2303211D36D
:1015300051F8043B40F8043B51F8043B40F8043BAD
:1015400051F8043B40F8043B51F8043B40F8043B9D
:10155000103AEDD20C3205D351F8043B40F8043B6D
:10156000043AF9D2043208D0D2071CBF11F8013B6B
:1015700000F8013B01D30B8803806046704700BF31
:10158000082A13D38B078DD010F003038AD0C3F140
:101590000403D21ADB071CBF11F8013B00F8013B22
:1015A00080D331F8023B20F8023B7BE7043AD9D3E1
:1015B000013A11F8013B00F8013BF9D20B780370B6
:1015C0004B7843708B788370604670470000000052
:1015D000000000000000000000000000000000000B
:1015E000A2EB0300704700BF02780B78012A28BFE6
:1015F0009A42F5D16DE9044540EA0104CDE902675C
:101600006FF0000C4FEA447212B380EA010414F048
:10161000070F6AD100F0070420F0070004F003056B
:1016200021F007014FEAC505F0E8042314F0040F88
:10163000F1E804670CFA05F462EA040266EA0406BB
:101640000AD063EA0403624667EA0407664603E0D9
:10165000F0E80423F1E8046782FA4CF582EA060414
:10166000A4FA8CF46CBB83FA4CF583EA0705A5FA5F
:101670008CF595B950E9022351E9026782FA4CF5DD
:1016800082EA0604A4FA8CF483FA4CF583EA07058F
:10169000A5FA8CF52543DBD09CB92DBAB5FA85F4B3
:1016A00024F0070427FA04F1DDE9026723FA04F3C2
:1016B00003F0FF0001F0FF01FDE80445A0EB01008D
:1016C000704724BAB4FA84F424F0070426FA04F12B
:1016D000DDE9026722FA04F202F0FF0001F0FF01E7
:1016E000FDE80445A0EB0100704714F0030F3CD166
:1016F00010F0030428D150F8082B51F8083B82FA67
:101700004CF582EA0305A5FA8CF55DB950F8042C76
:1017100051F8043C82FA4CF582EA0305A5FA8CF5EF
:10172000002DE8D02DBAB5FA85F424F0070423FA89
:1017300004F122FA04F202F0FF0001F0FF01FDE8DB
:101740000445A0EB010070474FEAC40420F00300F9
:1017500050F8082B21F0030151F8083B0CFA04F46F
:1017600062EA040263EA0403C9E710F003041AD032
:10177000A1EB040120F00300E40750F8042B06D08D
:101780000FD28B785FFAA2F4E41A06D12BB1CB7892
:101790005FFAB2F4E41A00D11BB920465DF8104B91
:1017A000704701F1040150F8042BCC0721F003012C
:1017B00051F8043B48D824D222F07F4482FA4CF5F9
:1017C00094EA1325A5FA8CF50AD165B951F8043BC2
:1017D00084EA0204B4EB036F0ED150F8042BEBE75C
:1017E0004FEA132355E035F07F454DD10878FDE8E9
:1017F0000445C0F1000070474FEA126203F0FF0396
:1018000047E002EA1C4482FA4CF594EA1345A5FA33
:101810008CF50AD165B951F8043B84EA0204B4EBB3
:10182000034F0CD150F8042BEBE74FEA134330E0A1
:1018300015EA1C4528D10B884FEA124229E04FEAED
:10184000124203EA1C4324E002F0FF0482FA4CF542
:1018500094EA1365A5FA8CF50AD165B951F8043BF1
:1018600084EA0204B4EB032F09D150F8042BEBE710
:101870004FEA13630DE015F0FF0F05D10B684FEA37
:10188000122223F07F4304E04FF00000FDE80445FE
:10189000704712BA1BBA82FA4CF482EA0304A4FA23
:1018A0008CF5B5FA85F402FA04F203FA04F34FEA70
:1018B0001260FDE80445A0EB1360704700000000D3
:1018C00090F800F06DE9024520F007016FF0000C80
:1018D00010F0070491F820F040F049804FF0000428
:1018E0006FF00700D1E9002391F840F000F1080003
:1018F00082FA4CF2A4FA8CF283FA4CF3A2FA8CF33B
:101900004BBBD1E9022382FA4CF200F10800A4FAA1
:101910008CF283FA4CF3A2FA8CF3E3B9D1E90423F5
:1019200082FA4CF200F10800A4FA8CF283FA4CF32C
:10193000A2FA8CF37BB9D1E9062301F1200182FAE6
:101940004CF200F10800A4FA8CF283FA4CF3A2FAEC
:101950008CF3002BC6D0002A04BF04301A4612BAFA
:10196000B2FA82F2FDE8024500EBD2007047D1E9FD
:10197000002304F00305C4F100004FEAC50514F08C
:10198000040F91F840F00CFA05F562EA05021CBF5D
:1019900063EA050362464FF00004A9E70000000077
:1019A00001F0FF01102A2BDB10F0070F08D010F810
:1019B000013B013A8B422DD010F0070F42B3F6D114
:1019C000F0B441EA012141EA014122F007047FF02D
:1019D00000070023F0E80256083C85EA010586EA84
:1019E000010685FA47F5A3FA87F586FA47F6A5FAC0
:1019F00087F68EB9EED1F0BC01F0FF0102F00702CC
:101A000032B110F8013B013A83EA010313B1F8D176
:101A10000020704701387047002D06BF3546033857
:101A2000073815F0010F07D1013015F4807F02BF90
:101A3000013015F4C03F0130F0BC0138704700BFE1
:101A40004FEA410C7FEA6C5C02D150EA013C0AD1BA
:101A50004FEA430C7FEA6C5C02D152EA033C02D1AC
:101A60004FF0000070474FF0010070474FEA41020D
:101A700012F5001215D211D56FF47873B3EB6252E0
:101A800012D94FEAC12343F0004343EA505311F007
:101A9000004F23FA02F018BF404270474FF0000099
:101AA000704750EA013005D111F0004008BF6FF0D7
:101AB000004070474FF00000704700BF38B5054642
:101AC0000C462846214600220023FEF787FF28B94E
:101AD00028462146BDE8384000F00AB8284604F1FF
:101AE000004100F005F8404261EB410138BD00BF04
:101AF000D0B50C4B002206460F46FEF7FDFCFEF764
:101B000095FF0446FEF77EFC074B0022FEF7F4FC2F
:101B100002460B4630463946FEF736FBFEF786FF97
:101B20002146D0BD0000F03D0000F04190B583B0EB
:101B300000AF0023FB7112E0FC7941F25801002054
:101B400000F0BEF903461F4A42F82430FB791D4AD3
:101B500052F82330002B06D0FB790133FB71FB795F
:101B6000012BE9D900E000BF4FF48251002000F0C2
:101B7000A7F90346144A13604FF48251002000F085
:101B80009FF90346114A13604FF40071002000F0E2
:101B900097F903460E4A1360FB79022B0DD10A4BCD
:101BA0001B68002B09D0094B1B68002B05D0084B84
:101BB0001B68002B01D0002300E0012318460C37DE
:101BC000BD4690BD0C2900201429002018290020B2
:101BD0001C29002080B487B000AFF8600B467A6003
:101BE000FB72FB687B6104E07B695A1C7A61FA7ABC
:101BF0001A707B685A1E7A60002BF5D100BF00BFB7
:101C00001C37BD4680BC704780B582B000AF03462C
:101C1000FB71FB79124A04339B0013445868FB792B
:101C2000104A52F823305B001A460021FFF7D2FF1A
:101C3000FB790B4A023352F82300FB790A4A52F827
:101C400023301A460021FFF7C5FFFB79044A1344ED
:101C5000012283F8202000BF0837BD4680BD00BFA9
:101C600000000020D8740308F074030880B485B025
:101C700000AF0346FB710023FB600023BB6011E053
:101C8000FB79144A04339B0013445A68BB685B0019
:101C900013441B88002B02D0FB680133FB60BB6838
:101CA0000133BB60FB790C4A52F82330BA689A4280
:101CB000E6D3FB68642203FB02F2FB79064951F884
:101CC0002330B2FBF3F3DBB218461437BD4680BCB9
:101CD000704700BF00000020D874030880B586B0AC
:101CE00000AF03463960FB7100237B6100233B8218
:101CF000FB79384A134493F82030002B04D1354B3C
:101D00001B68FA79104698473B68002B02D14FF0C8
:101D1000FF335AE0FB79304A52F823303A68B2FB7D
:101D2000F3F37B82FB792C4A52F823203B68B3FB08
:101D3000F2F101FB02F29B1A002B02D07B8A0133E5
:101D40007B82FB79254A52F82330013B7B6137E0E7
:101D5000FB79204A04339B0013445A687B695B007B
:101D600013441B88002B03D13B8A01333B8201E0E3
:101D700000233B823A8A7B8A9A421ED10023FB6071
:101D80000FE0FB79134A04339B0013445A687969C6
:101D9000FB680B445B0013447A8A1A80FB680133AA
:101DA000FB607B8AFA689A42EBD3FB790A4A52F8C5
:101DB00023307A6902FB03F307E07B69013B7B6117
:101DC0007B69002BC4DA4FF0FF3318461837BD4645
:101DD00080BD00BF00000020E4740308D87403082D
:101DE00080B586B000AF03463960FB71FB79224AAB
:101DF000134493F82030002B06D11F4B1B68FA794F
:101E000010469847012333E0FB791C4A52F82330EF
:101E10003A689A422BD2FB79194A52F823303A6831
:101E2000B2FBF3F33B61FB79134A04339B00134489
:101E30005A683B695B0013441B88FB6000237B618D
:101E40000FE0FB790C4A04339B0013445A6839694C
:101E50007B690B445B00134400221A807B690133C9
:101E60007B617A69FB689A42EBDB002300E0022386
:101E700018461837BD4680BD00000020F0740308E6
:101E8000E474030880B584B000AF03463960FB7189
:101E90003B68002B0DD03B68FA790849023251F8B3
:101EA00022209B1AFB60FB79F9681846FFF798FF20
:101EB00000E000BF1037BD4680BD00BF000000201D
:101EC00080B584B000AF03463960FB71FB79396897
:101ED0001846FFF703FFF860FB68B3F1FF3F01D13D
:101EE000002307E0FB79054A023352F823301A46F3
:101EF000FB68134418461037BD4680BD0000002023
:101F000080B500AFB7200EF045FD50200EF034FD37
:101F100002200EF031FDBD200EF03CFD00200EF041
:101F20002BFD00200EF028FD01200EF074FD28206E
:101F30000EF022FD0A2013F0C9F901200EF06BFD0E
:101F400010200EF019FD052013F0C0F900200FF04D
:101F5000A9F800200EF041FF00200EF088FF0020BD
:101F60000FF030F800200FF03BF80021012009F0BD
:101F70002DF800200EF012FF00200EF059FF002077
:101F80000EF0A0FF00200EF0F5FF00200FF006F885
:101F90000021022009F01AF800200EF02FFD00F0B9
:101FA000FBFB0AF0A3F901200DF09CFD00200FF0CF
:101FB0005FF800200DF018FF00200FF03FF8002020
:101FC0000EF07EFD00200EF09DFD00200EF0BEFD07
:101FD00000200EF055FD0F200DF0ACFD002101207A
:101FE0000DF0C0FE002102200DF0BCFE00210320F8
:101FF0000DF0B8FE002104200DF0B4FE00BF80BD3E
:1020000080B590B000AF00237B6007F10803002289
:102010001A609A80002387F83F3009F0F1F96421B3
:102020000A200EF0D7FD64211E200EF0E9FE642187
:102030001E200EF02FFF642132200EF077FF642166
:1020400032200EF085FF804B1B78DBB21A467F4BA7
:1020500053F82230B3F8AE3018460EF08BFF7A4BAF
:102060001B78DBB21A46794B53F82230B3F8B830FC
:1020700018460EF093FF744B1B78DBB21A46734B75
:1020800053F82230B3F8723018460EF0BBFD6E4B99
:102090001B78DBB21A466D4B53F82230B3F87C3014
:1020A00018460EF0C3FD684B1B78DBB21A46674B2F
:1020B00053F82230B3F8863018460EF0CBFD624B51
:1020C0001B78DBB21A46614B53F82230B3F89030DC
:1020D00018460EF0D3FD5C4B1B78DBB21A465B4B07
:1020E00053F82230B3F89A3018460EF0DBFD564B09
:1020F0001B78DBB21A46554B53F82230B3F8A430A4
:1021000018460EF0E3FD01200EF0F4FD01200EF064
:10211000FFFD01200EF00AFE01200EF015FE012049
:102120000EF020FE01200EF02BFE01200EF04AFFE3
:1021300001200EF055FF01200EF0B4FF00200DF03D
:10214000D1FC01200EF09CFC00200EF023FD0120AC
:102150000EF0B6FC01200EF044FC0A2013F0B6F895
:1021600000200EF03EFC322013F0B0F801200EF0FB
:1021700038FC322013F0AAF801200EF03FFF0120B6
:102180000EF05CFF322013F0A1F800200EF036FFB5
:102190000F200DF0CFFC322013F098F801200EF044
:1021A0002DFF322013F092F80121022008F00EFFDB
:1021B000322013F08BF80021022008F007FF3220B4
:1021C00013F084F80121022008F000FF1E4B1B7859
:1021D000DBB21A461D4B53F82230B3F8CC30DBB2D9
:1021E00018460DF0DBFC184B1B78DBB21A46174B78
:1021F00053F8223093F86130022B01D809F0CCFF5C
:10220000002000F01BFA0121012008F0DFFE0A2067
:1022100013F016F80021012008F0D8FE322013F048
:102220000FF80121012008F0D1FE00200DF06CFF15
:1022300000F06EFA01200DF067FF01200EF018FF8C
:1022400000BF4037BD4680BD6F4600201C02002005
:1022500080B582B000AF78600E4B1B78DBB21A46B7
:102260000D4B53F82230B3F862000A4B1B78DBB2F7
:102270001A46094B53F82230B3F864307A6819468D
:1022800009F038FF7968054801F016FE00BF0837ED
:10229000BD4680BD6F4600201C0200207856030812
:1022A00080B582B000AF0346FB800E4B1B78DBB2DB
:1022B0001A460D4B53F82230B3F86200094B1B78D5
:1022C000DBB21A46084B53F82230B3F86430FA8870
:1022D000194609F08BFC054801F0EEFD00BF0837F8
:1022E000BD4680BD6F4600201C02002090560308AA
:1022F00080B582B000AF0346FB800E4B1B78DBB28B
:102300001A460D4B53F82230B3F86200094B1B7884
:10231000DBB21A46084B53F82230B3F86430FA881F
:10232000194609F0C3FB054801F0C6FD00BF083798
:10233000BD4680BD6F4600201C020020AC5603083D
:1023400090B587B004AF786039601D4B1B78DBB265
:102350001A461C4B53F82230B3F86230013B98B256
:10236000174B1B78DBB21A46164B53F82230B3F8E2
:102370006430013B9CB2124B1B78DBB21A46114B06
:1023800053F82230B3F862300D4A1278D2B21146B7
:102390000C4A52F82120B2F8642039680391796818
:1023A000029101920093234602460121012009F087
:1023B000C1FC054801F080FD00BF0C37BD4690BD53
:1023C0006F4600201C020020C856030880B582B06A
:1023D00000AF0346FB800E4B1B78DBB21A460D4B59
:1023E00053F82230B3F86200094B1B78DBB21A466F
:1023F000084B53F82230B3F86430FA88194609F0D4
:10240000D5FC054801F058FD00BF0837BD4680BD2A
:102410006F4600201C020020E4560308F0B587B088
:1024200004AF78603960394B1B78DBB21A46384B01
:1024300053F82230B3F86230364AA2FB03235B081C
:1024400098B2324B1B78DBB21A46314B53F822302C
:10245000B3F864302F4AA2FB03235B089CB22B4BDA
:102460001B78DBB21A462A4B53F82230B3F86220AD
:10247000264B1B78DBB21946254B53F82130B3F8B5
:1024800062302449A1FB03135B089BB2D31A9DB2AF
:102490001E4B1B78DBB21A461D4B53F82230B3F8A3
:1024A00064201A4B1B78DBB21946194B53F82130C4
:1024B000B3F864301749A1FB03135B089BB2D31A2E
:1024C0009EB2124B1B78DBB21A46114B53F82230E6
:1024D000B3F862300D4A1278D2B211460C4A52F863
:1024E0002120B2F864203968039179680291019241
:1024F000009333462A46214609F01CFC064801F0A9
:10250000DBFC00BF0C37BD46F0BD00BF6F460020AE
:102510001C020020ABAAAAAA0057030880B582B00B
:1025200000AF0346FB71FB79184609F00FFEFB79FB
:102530001946034801F0C0FC00BF0837BD4680BD06
:102540001857030880B582B000AF78600B467B80D7
:102550000E4B1B78DBB21A460D4B53F82230B3F802
:1025600062000A4B1B78DBB21A46094B53F8223043
:10257000B3F864107B887A6809F072FC054801F0B2
:102580009BFC00BF0837BD4680BD00BF6F460020E2
:102590001C0200202C57030880B582B000AF786081
:1025A0000B467B800E4B1B78DBB21A460D4B53F863
:1025B0002230B3F862000A4B1B78DBB21A46094B93
:1025C00053F82230B3F864107B887A6809F0FEFC77
:1025D000054801F071FC00BF0837BD4680BD00BF53
:1025E0006F4600201C0200204857030880B582B0C7
:1025F00000AF786039600E4801F05EFC0D4B1B782F
:10260000DBB21A460C4B53F82230B3F86200094B88
:102610001B78DBB21A46084B53F82230B3F864102B
:102620003B687A6809F0F4FB00BF0837BD4680BDFF
:10263000645703086F4600201C02002080B59AB042
:1026400000AF0346FB71FB790B2B59D801A252F85E
:1026500023F000BF852601088D2601089526010874
:102660009F260108AD260108B5260108C3260108EA
:10267000CB260108D7260108E3260108F126010828
:10268000F92601082148FFF7E3FD3AE00820FFF7AB
:102690009DFE36E04FF0FF30FFF7DAFD31E04FF0FE
:1026A0007F414FF0FF30FFF74BFE2AE00820FFF795
:1026B0001FFE26E04FF0FF216FF47F40FFF796FFEB
:1026C0001FE00120FFF72AFF1BE008214FF0FF3039
:1026D000FFF738FF15E008214FF0FF30FFF75CFFF0
:1026E0000FE04FF0FF314FF07F40FFF797FE08E01B
:1026F0000820FFF7FDFD04E00820FFF7D1FD00E012
:1027000000BF00BF6837BD4680BD00BF0000FFFFAF
:1027100080B500AFB7200EF03DF950200EF02CF937
:1027200002200EF029F9BD200EF034F900200EF041
:1027300023F900200EF020F9282012F0C7FD012017
:102740000EF069F911200EF017F98C2012F0BEFD81
:1027500001200EF060F929200EF00EF9282012F069
:10276000B5FD00BF80BD80B582B000AF78607968EC
:102770000020FFF7A5FB034618460837BD4680BD7D
:1027800080B582B000AF786079680020FFF77AFBEF
:1027900000BF0837BD4680BD80B400AF034B0422A4
:1027A0001A6001231846BD4680BC704714100140D2
:1027B00080B500AF01F0A8FA054B00221A804FF453
:1027C00000720021034817F03BF900BF80BD00BF35
:1027D000202B00202029002080B500AFFFF7E8FF64
:1027E00000BF80BD80B582B000AFFB1D184601F070
:1027F000D5FA0346002B0ED1094B1B88B3F5FF7F9A
:1028000009D8074B1B885A1C91B2054A11801A46F9
:10281000F979044B995400BF0837BD4680BD00BF0D
:10282000202B00202029002080B582B000AF0EE0D0
:102830000D4B1B88B3F5FF7F09D80B4B1B885A1C27
:1028400091B2094A11801A46F979084B9954FB1D37
:10285000184601F0A3FA0346002BE9D000BF00BFE1
:102860000837BD4680BD00BF202B00202029002056
:1028700080B483B000AF03463960FB7197F907302D
:10288000002B0BDA3B68DAB20C49FB7903F00F033B
:10289000043B1201D2B20B441A7609E03B68DAB26B
:1028A000074997F907301201D2B20B4483F800238D
:1028B00000BF0C37BD4680BC704700BF00ED00E094
:1028C00000E100E080B582B000AF78607B68013B3A
:1028D000B3F1807F01D301230FE00A4A7B68013BFB
:1028E00053600F214FF0FF30FFF7C2FF054B00226E
:1028F0009A60044B07221A60002318460837BD4629
:1029000080BD00BF10E000E080B500AF094B1B6840
:10291000094AA2FB03239B091846FFF7D3FF03468E
:10292000002B00D0FEE700214FF0FF30FFF7A0FFA3
:1029300000BF80BD54020020D34D621080B400AFB0
:1029400000BFBD4680BC704780B400AFFEE780B4D6
:1029500000AFFEE780B400AFFEE780B400AFFEE753
:1029600080B400AF00BFBD4680BC704780B400AFEC
:1029700000BFBD4680BC704780B400AF00BFBD46FD
:1029800080BC704780B500AF12F0D0FC00BF80BDA6
:1029900080B400AF00BFBD4680BC704780B584B036
:1029A00002AF00237B60FFF7AFFF234800F090FAEF
:1029B000224800F08DFA224800F08AFA00F06EFA00
:1029C00012F060FD10F090FE0EF018FC0CF09EFF6F
:1029D0001C4B1B78002B0BD0002300934FF4E133EA
:1029E0000022012100200AF09BF90AF049FA03E0D5
:1029F000FFF7DEFEFFF7F0FE10F0C0F90EF01AFF51
:102A000008F002FA11F092F811F004F878607B688F
:102A10000D4A934204D10D490D4817F063F803E0C5
:102A20000A490C4817F05EF80B4810F051FD00BF42
:102A30000837BD4680BD00BF00380140004400405B
:102A400000480040901600201740EF007857030818
:102A5000805703089C570308D878002080B5ADF54F
:102A6000855D84B002AF012307F5845202F11002A4
:102A7000136007F5845303F110031B6883F3108878
:102A800000BF002307F5845202F11402136007F51A
:102A9000845303F114031B6883F3108800BF4FF4C1
:102AA00080314FF0006000F087FBBB4B00221A70B2
:102AB000FFF774FF01F028F90DF0D2FF0CF0DAFDFA
:102AC00001200DF037F801200EF0ECFA09F060FD5E
:102AD00009F05EFF08F0C6FC0FF0C4F811F03CFFEF
:102AE000AE4817F061F8AE4B1B781B02AC4A527827
:102AF00013431946AB4801F0DFF9FFF717F8002040
:102B0000FFF782F801200EF0A9FC03461A46A649F9
:102B1000A64816F0E7FF02200EF0A0FC03461A4676
:102B2000A149A34816F0DEFF0122A249002005F0CA
:102B300051FC01229F49A04805F04CFC034607F5D3
:102B4000845202F11B02137007F5845303F11B0337
:102B50001B780D2B40F0038100220021954807F0DF
:102B60008DF8034607F5845202F11B02137007F536
:102B7000845303F11B031B781A468B498F4816F0C8
:102B8000B1FF01228B49002005F024FC0122894974
:102B9000894805F01FFC07F10803083B1322884908
:102BA000184605F05FFC034607F5845202F11B024C
:102BB000137007F5845303F11B03197807F1A80379
:102BC00003F5776353E9022313460A4676497D48A5
:102BD00016F088FF002307F5825202F11C021360F1
:102BE00007F5835300221A605A601A72764A07F575
:102BF000825303F1100307CA03C31A800233120C75
:102C00001A70002307F5855202F1040213603CE0BC
:102C100007F5825202F1100207F5825000F11C0004
:102C200007F5855303F104031B68684917F008F89A
:102C300007F5845303F10C0307F5825101F11C01E0
:102C400007F1080008380D2206F0B7F9034607F52A
:102C5000845202F11B02137007F5845303F11B0326
:102C60001A7807F5845303F10C031B684E49584842
:102C700016F038FF07F5855303F104031B68013391
:102C800007F5855202F10402136007F5855303F13D
:102C900004031B68092BBBDD07F10803083B18463A
:102CA00006F061FD07F10803083B0322444918467A
:102CB00005F0D8FB034607F5845202F11B0213709E
:102CC00007F5845303F11B03197807F1A80303F5F3
:102CD000776353E9022313460A463349394816F00D
:102CE00001FF002307F5855213602AE007F58253A0
:102CF00007F5825101F1040107F1080008380D229F
:102D000005F0EAFE034607F5845202F11B02137038
:102D100007F58253196807F5845303F11B031B78E9
:102D200007F5825202F1040200930B461E4929481E
:102D300016F0D8FE07F585531B68013307F5855259
:102D4000136007F585531B68092BCFDD07F10803D6
:102D5000083B184606F007FD164810F089FA15489A
:102D600010F086FA002307F5835202F10C0213607B
:102D700007F5835303F1100300221A605A609A602A
:102D8000DA601A615A611A83002307F5845202F14E
:102D90001C02136051E000BF222B0020B45703082F
:102DA000D87800200C5803087857030820580308E7
:102DB000345803084C580308F056002050580308B4
:102DC0006058030870580308D0580308885803084F
:102DD00090580308A858030807F5845303F11C030F
:102DE0001A6813461B019B1A5B00274A134407F518
:102DF000835202F10C0211461846FEF7F5FB03461A
:102E0000002B22D007F5845303F11C031A681346E4
:102E10001B019B1A5B001C4A13441A461B491C48A1
:102E200016F060FE07F5845303F11C031B680133A1
:102E300007F5845202F11C02136007F5845303F175
:102E40001C031B683B2BC7DD00E000BF0CF0CCFB74
:102E5000104B01221A700CF033FC0F4B1B78002B27
:102E600002D00AF029F801E0FFF7DEFC0FF04EFC7B
:102E700011F034F910F09EFF00F0E2F800F0B6FF18
:102E80000BF0DAFFE7E700BFC46A002078570308B9
:102E9000C8580308222B00209016002080B500AFF0
:102EA00040F2036000F0E6FC4FF4007303221021AF
:102EB000044800F099F90449044816F013FE00BFD5
:102EC00080BD00BF000C014078570308DC580308A0
:102ED00080B584B000AF78600023FB607B68504A07
:102EE000934202D10023FB600CE07B684D4A934281
:102EF00002D10123FB6005E07B684B4A934201D17C
:102F00000223FB60494AFB6832F81330184600F090
:102F1000B1FC474AFB6832F81330184600F0AAFCAF
:102F20004FF4C06000F0A6FC0021042000F042FA3B
:102F3000404AFB6852F823003F4AFB6852F82330AE
:102F40000322182100F050F93A4AFB6852F8230096
:102F50003A4AFB6852F823300322482100F044F932
:102F60007B682F4A93420CD07B682D4A93421AD833
:102F70007B682C4A93420AD07B682B4A93420CD040
:102F800011E001220021252000F090F80CE0002241
:102F90000021262000F08AF806E0002200212720E8
:102FA00000F084F800E000BF786800F075FA7B68F4
:102FB0001B4A93420CD07B68194A93421AD87B680B
:102FC000184A93420AD07B68174A93420CD011E00A
:102FD0004FF4E131786800F0C1FA0CE04FF4E131D0
:102FE000786800F0BBFA06E04FF4E121786800F061
:102FF000B5FA00E000BF0421786800F04DFB08211D
:10300000786800F02CFB786800F018FB40F205317E
:10301000786800F09DFB00BF1037BD4680BD00BF43
:103020000038014000440040004800404C020020AD
:10303000200200204002002028020020340200204C
:1030400080B500AF0E4B1B68002B17D00C4B002235
:103050001A600B4BDB68002B08D1094B0122DA60A8
:103060004FF40071074800F073F907E0044B0022A9
:10307000DA604FF40071034800F079F900BF80BDB9
:10308000242B0020000C014080B483B000AF786096
:10309000054A7B6843F0BF6343F40033D36000BF4D
:1030A0000C37BD4680BC704700ED00E080B586B0AF
:1030B00000AF0346FB710B46BB7113467B710023C7
:1030C000FB6000237B6100233B61394BDB6803F429
:1030D000E063B3F5E06F04D100237B6104233B611F
:1030E00037E0334BDB6803F4E063B3F5C06F04D122
:1030F00001237B6103233B612BE02D4BDB6803F451
:10310000E063B3F5A06F04D102237B6102233B612E
:103110001FE0274BDB6803F4E063B3F5806F04D155
:1031200003237B6101233B6113E0214BDB6803F444
:10313000E063B3F5407F04D104237B6100233B614E
:1031400007E04FF4A060FFF79FFF02237B6102239B
:103150003B61BA797B69C3F1040302FA03F3FB60B4
:103160007A793B69C3F104030F2121FA03F3134079
:10317000FA681343FB60FB681B01FB600D4AFB7997
:10318000F968C9B213440A4683F80023FB7903F0B7
:103190001F030849FA795209D2B21046012202FAF5
:1031A00003F341F8203000BF1837BD4680BD00BF93
:1031B00000ED00E000E100E080B483B000AF786093
:1031C00039603B6823F0604323F07F0305497A6848
:1031D00013438B60BFF34F8F00BF00BF0C37BD465A
:1031E00080BC704700ED00E080B489B000AFF860AB
:1031F000B9607A603B600023BB6100237B61BB68E0
:1032000003F00F03BB61BB6803F01003002B14D065
:103210007B68042B0DD1BB6943F00303BB61FB68E2
:103220003C331A68FB683C3319463B6813430B6018
:1032300003E0BA697B681343BB610023FB8339E079
:10324000FB8B01229A403B681340002B2FD0FB6878
:103250001B687B61FB8B9B000F2202FA03F3DB43AD
:103260007A6913407B61FB8B9B00BA6902FA03F316
:103270007A6913437B61BB68282B09D1FB8B012240
:103280009A40FB68143319463B6813400B600BE00F
:10329000BB68482B08D1FB8B01229A40FB68103396
:1032A00019463B6813400B60FB687A691A60FB8B18
:1032B0000133FB83FB8B072BC2D90823FB833EE042
:1032C000FB8B01229A403B681340002B34D0FB68F3
:1032D00004331B687B61FB8B083B9B000F2202FAC7
:1032E00003F3DB437A6913407B61FB8B083B9B0054
:1032F000BA6902FA03F37A6913437B61BB68282B2E
:1033000009D1FB8B01229A40FB68143319463B68B4
:1033100013400B600BE0BB68482B08D1FB8B0122EC
:103320009A40FB68103319463B6813400B60FB68FA
:1033300004331A467B691360FB8B0133FB83FB8BE1
:103340000F2BBDD900BF00BF2437BD4680BC7047DE
:1033500080B483B000AF786039607B6810331A4660
:103360003B68136000BF0C37BD4680BC704780B41B
:1033700083B000AF786039607B6814331A463B68CD
:10338000136000BF0C37BD4680BC704780B483B06B
:1033900000AF786039607B6808331A683B68134077
:1033A000002B01D0012300E0002318460C37BD4656
:1033B00080BC704780B487B000AF78600B46FB706C
:1033C00000233B610023FB6000237B610023BB6083
:1033D0007B68002B03DA2E4B1B687B6102E02D4BD0
:1033E0001B687B617B681B0C03F00F03BB607B6871
:1033F0009BB23B617B6803F44013B3F5401F0AD1D5
:103400007B6923F0E0637B61224B1B68214A23F038
:10341000E063136021E07B6803F48013002B0ED07F
:103420000322BB6802FA03F3FB60FB68DB437A69A3
:1034300013407B617B6943F0E0637B610DE07B6857
:103440005B0D1B013A6902FA03F3DB437A6913400F
:103450007B617B6943F0E0637B61FB78002B08D0E4
:103460007B685B0D1B013A6902FA03F37A69134327
:103470007B617B68002B03DA054A7B69136002E0FD
:10348000044A7B69136000BF1C37BD4680BC70478F
:103490001C0001400400014080B582B000AF78609C
:1034A0007B68294A93421CD07B68274A934245D8BF
:1034B0007B68264A934238D07B68244A93423DD8A1
:1034C0007B68234A934227D07B68214A934235D8B0
:1034D0007B68204A93420DD07B681F4A934212D0EA
:1034E0002CE040F20E3000F0E7F940F20E3000F030
:1034F00005FA24E040F2114000F0DEF940F21140FC
:1035000000F0FCF91BE040F2124000F0D5F940F267
:10351000124000F0F3F912E040F2134000F0CCF951
:1035200040F2134000F0EAF909E040F2144000F0E4
:10353000C3F940F2144000F0E1F900E000BF00BF21
:103540000837BD4680BD00BF003801400050004034
:10355000004C0040004400400048004080B586B068
:1035600000AF7860396000237B6100233B6100235A
:10357000FB600023BB607B682B4A93421CD07B68B6
:10358000294A934231D87B68284A934228D07B68E5
:10359000264A934229D87B68254A93421BD07B68F0
:1035A000234A934221D87B68224A934209D07B6800
:1035B000214A93420AD018E0032000F0C3F9786151
:1035C00014E0022000F0BEF978610FE0022000F064
:1035D000B9F978610AE0022000F0B4F9786105E0F9
:1035E000022000F0AFF9786100E000BF3B685A08A4
:1035F0007B691A443B68B2FBF3F3BB60BA684FF6D1
:10360000F07313403B61BB6803F00F03FB603A6942
:10361000FB6842EA03017B6808331A468BB21360E9
:1036200000BF1837BD4680BD003801400050004043
:10363000004C0040004400400048004080B483B08B
:1036400000AF78607B680C331B687A680C3243F4F7
:103650000053136000BF0C37BD4680BC704780B478
:1036600085B000AF786039600023FB607B680C3365
:103670001B68FB60FB6823F00803FB60FA683B688B
:103680001343FB607B680C331A46FB68136000BF72
:103690001437BD4680BC704780B485B000AF7860F9
:1036A00039600023FB607B680C331B68FB60FB68A0
:1036B00023F00403FB60FA683B681343FB607B68FC
:1036C0000C331A46FB68136000BF1437BD4680BC3C
:1036D000704780B483B000AF786039607B68043392
:1036E0001A463B68C3F30803136000BF0C37BD469E
:1036F00080BC704780B483B000AF78607B680433CF
:103700001B689BB2C3F308039BB218460C37BD4637
:1037100080BC704780B483B000AF78600B467B807C
:103720007B889B099BB21A467B6813441A687B8886
:1037300003F01F0322FA03F303F00103002B01D06F
:10374000012300E0002318460C37BD4680BC7047BB
:1037500080B483B000AF78600B467B807B889B0988
:103760009BB21A467B6813441A687B8803F01F03D8
:10377000012101FA03F37988890989B20846796839
:10378000014413430B6000BF0C37BD4680BC70473B
:1037900080B483B000AF78600B467B807B889B0948
:1037A0009BB21A467B6813441A687B8803F01F0398
:1037B000012101FA03F3DB437988890989B20846BC
:1037C0007968014413400B6000BF0C37BD4680BCD4
:1037D000704780B485B000AF786039600023FB602B
:1037E0000023BB603B689B09C3F309027B68134459
:1037F0001A683B6803F01F03012101FA03F3134029
:10380000FB603B689A0D7B6813441A683B681B0C8D
:1038100003F01F03012101FA03F31340BB60BB68EF
:10382000002B04D0FB68002B01D0012300E0002313
:1038300018461437BD4680BC704780B483B000AFD3
:10384000786039603B689A0D7B6813441A683B685E
:103850001B0C03F01F03012101FA03F3DB4339685A
:10386000880D7968014413400B6000BF0C37BD46DA
:1038700080BC704780B483B000AF0346FB80FB88F8
:103880009B099BB203F1804303F504331968FB885D
:1038900003F01F0301229A40FB889B099BB203F1AE
:1038A000804303F50433184641EA0203036000BF76
:1038B0000C37BD4680BC704780B483B000AF034670
:1038C000FB80FB889B099BB203F1804303F5043323
:1038D0001968FB8803F01F0301229A40FB889B09AB
:1038E0009BB203F1804303F50433184641EA020317
:1038F000036000BF0C37BD4680BC704780B483B006
:1039000000AF0346FB80FB889B099BB203F1804319
:1039100003F504331968FB8803F01F03012202FA40
:1039200003F3DA43FB889B099BB203F1804303F561
:103930000433184601EA0203036000BF0C37BD469A
:1039400080BC704790B498B000AF0346FB71002371
:10395000FB656E4B07F11C040FCB84E80F006C4A2B
:1039600007F1140392E8030083E80300684A07F1B3
:103970000C0392E8030083E80300664B1B689B0876
:1039800003F00303FB64FB6C022B0FD0FB6C022BD8
:1039900064D8FB6C002B03D0FB6C012B03D05DE0E3
:1039A0005D4BBB655DE05C4BBB655AE0594B1B68EA
:1039B00003F48033BB64BB6CB3F5803F19D1574B24
:1039C0001B6803F080437B647B6C002B02D1524B5D
:1039D0003B6501E0524B3B654E4B1B6803F40033E3
:1039E0003B643B6CB3F5003F05D13B6D5B083B6529
:1039F00001E04C4B3B65474B1B689B0C03F00F03EE
:103A00007B65444B1B6803F00063002B03D07B6D88
:103A100043F010037B653F4B1B6803F08043002B92
:103A200003D07B6D43F020037B657B6D0E2B03D8A9
:103A30007B6D02337B650BE07B6D0E2B06D97B6DB6
:103A40003E2B03D87B6D01337B6501E03F237B6513
:103A50003B6D7A6D02FB03F3BB6502E02E4BBB6549
:103A600000BF2C4B1B681B0903F00F03FB6307F11E
:103A70001C02FB6B13441B78BB63BA6DBB6B22FA51
:103A800003F37B63234B1B681B0A03F00703FB63F1
:103A900007F11402FB6B13441B78BB637A6BBB6B9F
:103AA00022FA03F33B631B4B1B68DB0A03F007039B
:103AB000FB6307F10C02FB6B13441B78BB637A6B4F
:103AC000BB6B22FA03F3FB62FB79032B16D801A22E
:103AD00052F823F0E53A0108EB3A0108F13A0108FF
:103AE000F73A0108BB6DFB6509E07B6BFB6506E0FF
:103AF0003B6BFB6503E0FB6AFB6500E000BFFB6D11
:103B000018466037BD4690BC704700BFF8580308A0
:103B1000085903080410024000127A002C100240D9
:103B2000006CDC0200093D0080B582B000AF1D4B87
:103B30001B681C4A43F0010313601B4B1B681A4AA5
:103B400043F08003136000237B6002E07B68013355
:103B50007B607B6844F61F629342F7D9124B1B6867
:103B6000114A23F0030313600E4B1B680D4A23F028
:103B7000847323F4803313600C4B4FF41F021A60DC
:103B8000084B1B68074A23F480231360064B00226E
:103B90001A60074B00221A6000F00CF800BF0837CB
:103BA000BD4680BD001002400410024008100240D3
:103BB0002C10024080B500AF00F002F800BF80BDBD
:103BC00080B483B000AF00237B6000233B60494B8F
:103BD0001B68484A43F4803313607B6801337B6081
:103BE000444B1B6803F400333B603B68002B04D15B
:103BF0007B684FF6FF729342EFD13E4B1B6803F494
:103C00000033002B00D1FEE73B4B1B683A4A43F0E0
:103C100080531360394B1B68384A43F440431360A8
:103C2000374B374A1B681360354B354A1B681360A6
:103C3000334B1B68324A43F480631360304B1B687C
:103C40002F4A23F4403313602D4B1B682C4A43F456
:103C5000403313602A4B1B68294A23F0904323F416
:103C600070131360264B1B68254A43F0036343F42B
:103C7000802313601F4B1B681E4A43F08073136040
:103C800000BF1C4B1B6803F00073002BF9D01B4BCB
:103C90001B681A4A43F48033136000BF194B1B683A
:103CA00003F48033002BF9D0144B1B68134A43F400
:103CB0000033136000BF134B1B6803F40033002B69
:103CC000F9D00F4B1B680E4A23F0030313600C4B13
:103CD0001B680B4A43F00203136000BF084B1B68CC
:103CE00003F00803002BF9D000BF00BF0C37BD461E
:103CF00080BC7047001002401C1002400070004061
:103D0000041002400470004080B400AF084B002251
:103D10001A60074B00225A60054B064ADA60044BD2
:103D20004FF496729A6000BFBD4680BC704700BFDA
:103D3000342B0020442B002080B483B000AF034616
:103D4000FB71154B1968144B5B680133124A92687A
:103D5000B3FBF2F000FB02F29B1A994202D14FF042
:103D6000FF3313E00C4BDA680B4B5B681344FA79B2
:103D70001A70094B5B680133074A9268B3FBF2F192
:103D800001FB02F29B1A044A5360002318460C37C9
:103D9000BD4680BC704700BF342B002080B483B088
:103DA00000AF7860104B1A680F4B5B689A4201D1E4
:103DB000002314E00C4BDA680B4B1B6813441A7891
:103DC0007B681A70084B1B680133074A9268B3FB83
:103DD000F2F101FB02F29B1A034A13600123184619
:103DE0000C37BD4680BC7047342B002080B582B0B4
:103DF00000AFFB1D1846FFF7D1FF0346002B03D091
:103E0000FB79184600F0CCFC00BF0837BD4680BDEA
:103E100080B500AF0448FFF76DFC0346DAB2034BF0
:103E20001A7000BF80BD00BF00480040702C002009
:103E300080B500AF044B1B781846FFF77DFFFFF7F6
:103E4000E7FF00BF80BD00BF702C002080B500AF31
:103E50000448FFF74FFC0346DAB2034B1A7000BF69
:103E600080BD00BF00440040702C002080B500AF32
:103E7000044B1B781846FFF75FFFFFF7E7FF00BF13
:103E800080BD00BF702C002080B500AF07490848F6
:103E9000FFF79FFC0346002B05D0FFF7C9FF05493C
:103EA0000348FFF7CAFC00BF80BD00BF0503050043
:103EB00000480040050303000FB480B59CB000AF7C
:103EC0000023FB6607F17C037B6007F108007B6839
:103ED000BA6F64211BF038FF19E007F10802FB6E8E
:103EE00013441B7819461248FFF7F3FB642011F0C6
:103EF000A7F9FB6E0133FB660E490D48FFF769FC1D
:103F00000346002B03D00C490948FFF796FCFB6ED3
:103F1000622B06DC07F10802FB6E13441B78002BB2
:103F2000DBD100BF7037BD46BDE8804004B07047AC
:103F300000440040070307000603060080B400AFFA
:103F4000BFF34F8F00BF064BDB6803F4E062044908
:103F5000044B1343CB60BFF34F8F00BFFEE700BF9E
:103F600000ED00E00400FA0580B582B000AF786093
:103F7000054B1B78002B02D0044815F015FE00BF3E
:103F80000837BD4680BD00BF222B00205C590308C6
:103F900080B582B000AF78600FF094FB034815F055
:103FA000A1FD00BF0837BD4680BD00BF6C590308A6
:103FB00080B582B000AF78600FF036FB044815F092
:103FC00091FDFFF7BBFF00BF0837BD4680BD00BFB6
:103FD0008059030880B582B000AF786018497868CE
:103FE00016F05AF80346002B03D0164815F0DCFDF6
:103FF00022E01549786816F04FF80346002B03D0ED
:10400000124B01221A7017E01149786816F044F833
:104010000346002B02D00F4B01221A700E4978681C
:1040200016F03AF80346002B06D00C4B01221A700A
:104030000B48FFF741FF00BF0837BD4680BD00BFFA
:10404000985903089C590308BC590308714600207D
:10405000C059030872460020C8590308734600205F
:10406000D059030880B582B000AF786010497868F5
:1040700016F012F80346002B08D010F06DFC0D4B23
:1040800001221A700C4B00221A700DE00B4978685F
:1040900016F002F80346002B06D0064B01221A70D8
:1040A000054B01221A7000BF0837BD4680BD00BF16
:1040B000E4590308704600206E460020E8590308C2
:1040C00080B584B000AF78601049786815F0E4FFDF
:1040D0000346002B16D007F108031A460C497868EE
:1040E00015F0CEFD0346FB60FB68012B0AD1BB68CF
:1040F000FA681946074815F0F5FCBB68DBB21846AC
:10410000FEF79CFA00BF1037BD4680BDEC5903088E
:10411000F4590308005A030880B582B000AF7860F4
:104120000649786815F0B8FF0346002B02D00BF063
:104130005BFA00BF0837BD4680BD00BF185A0308B0
:1041400080B592B000AF78607949786815F0A4FF27
:104150000346002B16D007F124031A4675497868E8
:1041600015F08EFD03467B647B6C012B0AD17B6AC4
:104170001946714815F0B6FC7B6A9BB2194642207D
:1041800008F05EF96D49786815F086FF0346002B4C
:1041900016D007F120031A466949786815F070FDBA
:1041A00003463B643B6C012B0AD13B6A19466548C8
:1041B00015F098FC3B6A9BB21946432008F040F981
:1041C0006149786815F068FF0346002B16D007F1A7
:1041D0001C031A465D49786815F052FD0346FB63DF
:1041E000FB6B012B0AD1FB691946594815F07AFC83
:1041F000FB699BB21946452008F022F955497868B9
:1042000015F04AFF0346002B16D007F118031A4693
:104210005149786815F034FD0346BB63BB6B012B35
:104220000AD1BB6919464D4815F05CFCBB699BB2CD
:104230001946442008F004F94949786815F02CFF24
:104240000346002B16D007F114031A464549786837
:1042500015F016FD03467B637B6B012B0AD17B694E
:104260001946414815F03EFC7B699BB21946462031
:1042700008F0E6F83D49786815F00EFF0346002B7C
:1042800016D007F110031A463949786815F0F8FC82
:1042900003463B633B6B012B0AD13B69194635480A
:1042A00015F020FC3B699BB21946482008F0C8F87D
:1042B0003149786815F0F0FE0346002B16D007F15F
:1042C0000C031A462D49786815F0DAFC0346FB62A8
:1042D000FB6A012B0AD1FB681946294815F002FC3C
:1042E000FB689BB21946472008F0AAF82549786870
:1042F00015F0D2FE0346002B16D007F108031A462C
:104300002149786815F0BCFC0346BB62BB6A012BEF
:104310000AD1BB6819461D4815F0E4FBBB689BB287
:104320001946492008F08CF800BF4837BD4680BDCB
:104330001C5A0308245A03082C5A0308385A030845
:10434000405A03084C5A0308585A03085C5A030899
:10435000645A0308705A0308745A03087C5A030805
:10436000885A03088C5A0308945A0308A05A030871
:10437000A45A0308AC5A0308B85A0308BC5A0308E5
:10438000C45A0308D05A0308D45A0308DC5A030855
:1043900080B582B000AF78602A49786815F07CFE5D
:1043A0000346002B11D040F205312748FFF7F0F902
:1043B00011F0D0F840F205312348FFF7C9F9234B3B
:1043C00000221A70FFF7BAFD38E02149786815F02D
:1043D00063FE0346002B09D0FDF792FD1B4B002224
:1043E0001A700FF003F9FFF7A9FD27E01949786863
:1043F00015F052FE0346002B04D00FF0BBF8FFF778
:104400009DFD1BE01449786815F046FE0346002B1D
:1044100014D040F205310C48FFF7BAF911F09AF8C0
:104420000E4800F01DF840F205310748FFF790F9FB
:10443000064B00221A70FFF781FD00BF0837BD460A
:1044400080BD00BFE85A030800480040222B00202E
:10445000EC5A0308F05A0308F85A0308005B0308F3
:1044600080B5ADF5C35D00AF07F50663A3F65C0349
:1044700018604FF0006307F5C25202F11C0213608E
:1044800007F50663A3F58A6300221A6004334FF42C
:104490007F720021184615F0D3FA002307F5C252A7
:1044A00002F118021360C7E007F5C25303F11803C5
:1044B0001A6813461B019B1A5B00664A1A4407F5EB
:1044C0000663A3F65C0319681046FDF78DF80346F2
:1044D000002B40F0A68007F50663A3F654030022E4
:1044E0001A6004334FF47F720021184615F0A8FAC1
:1044F00007F50663A3F65C0207F12003143B12687C
:104500005549184615F09CFB07F12001143907F5B1
:104510000263103B0122184603F0A4FF034607F58F
:10452000C25202F11702137007F5C25303F11703C9
:104530001B78002B17D107F5C25303F11703197825
:1045400007F5066303F57C63D3E9002393B20A46BB
:104550004249434815F0C6FA4FF000614FF601603A
:104560000DF000F901E0FF236EE007F58463143BD2
:1045700007F58461103907F5026010384FF4806246
:1045800004F0AAFA034607F5C25202F117021370AB
:1045900007F5C25303F117031B78002B15D107F55C
:1045A000C25303F117031A7807F50663A3F25443C5
:1045B0001B682A492B4815F095FA07F50663A3F204
:1045C00054431B68002B2AD001E0FE233CE007F592
:1045D0000663A3F254431B689BB2194607F5846334
:1045E000103B07F5C25202F11C02126818460DF08A
:1045F00051F80346002B10D007F50663A3F254438D
:104600001B6807F5C25202F11C021268134407F539
:10461000C25202F11C021360A7E7FD2314E000233D
:1046200012E007F5C25303F118031B68013307F5C5
:10463000C25202F11802136007F5C25303F11803C6
:104640001B683B2B7FF730AF184607F5C357BD46B5
:1046500080BD00BFC46A0020505B0308185B0308DC
:10466000205B0308385B030880B584B000AF786036
:104670000B23BB600C4815F097FA0023FB600AE09F
:104680000A4AFB6852F833301946094815F02AFAED
:10469000FB680133FB60FA68BB689A42F0DB00BF3D
:1046A00000BF1037BD4680BD9C5B03087802002028
:1046B000B05B030880B58AB000AF78600F4910483E
:1046C00015F010FA0023BB6007F10C0300221A60FA
:1046D0005A609A60DA601A615A611A8307F1080316
:1046E00018460EF0BFFF07F10803023319460548CC
:1046F00015F0F8F900BF2837BD4680BD58020020EC
:10470000B85B0308C45B030880B483B000AF786073
:1047100002E07B6801337B607B681B78202BF8D03C
:104720007B6818460C37BD4680BC704780B586B0A4
:1047300000AF78600B233B6100237B6125E0174AC3
:104740007B6952F833301846FDF7BAF80346FB6030
:10475000124A7B6952F83330FA681946786815F0C6
:1047600001FB0346002B0DD1FB687A681344184601
:10477000FFF7CAFFB860094A7B69DB0013445B6836
:10478000B86898477B6901337B617A693B699A42D3
:10479000D5DB00BF00BF1837BD4680BD78020020C2
:1047A00080B582B000AF0346FB71FB797E2B2BD81E
:1047B000FB791F2B0FD8164B1B78002B17D0144BEF
:1047C00000221A701348FFF7B1FF40220021114860
:1047D00015F036F90BE00E4B1B7819460D4AFB79A4
:1047E00053540B4B1B780133DAB2094B1A70084B48
:1047F0001B783F2B09D9064B00221A70402200215A
:10480000044815F01DF900E000BF0837BD4680BD23
:10481000B42C0020742C002080B58AB000AF034671
:104820003960FB8000237B61FB887F2B02D8FB88EB
:10483000FB8446E03B68002B04D0244B9B685B085C
:104840007B6101E000237B61204B9B685B08FB617F
:10485000FB699B08013BFB6100233B6210237B83C8
:1048600023E0FA693B6AD31A5B083A6A13443B6156
:10487000164B5A683B699B001A447B69D11807F1B3
:104880000C03042218460FF08BF8BB89FA889A4271
:104890000FD0BB89FA889A4202D93B693B6201E09A
:1048A0003B69FB617B8B013B7B837B8B002BD8D1EE
:1048B00000E000BF7B8B002B01D0FB8900E00023D0
:1048C000FB84FB8C18462837BD4680BD407E002007
:1048D00080B485B000AF0346FB800023FB6002E09C
:1048E000FB680133FB600F4AFB6832F81330002B82
:1048F00006D00C4AFB6832F81330FA889A42EFD19E
:10490000084AFB6832F81330002B04D0064AFB68D3
:1049100032F8133000E0FB8818461437BD4680BCDF
:10492000704700BF0C750308EC76030880B487B0AD
:1049300000AFF860B9607A60FB687B61BB683B617F
:1049400007E03A69531C3B617B69591C7961127815
:104950001A707B685A1E7A60002BF2D100BF00BF2C
:104960001C37BD4680BC704780B487B000AFF8608C
:10497000B9607A60FB687B6105E07B695A1C7A61EB
:10498000BA68D2B21A707B685A1E7A60002BF4D1D2
:1049900000BF00BF1C37BD4680BC704780B489B0E3
:1049A00000AFF860B9607A60FB68FB61BB68BB610F
:1049B00000237B6100BF7B685A1E7A60002B0DD0FC
:1049C000FB695A1CFA611B781946BB695A1CBA610B
:1049D0001B78CB1A7B617B69002BECD07B69184676
:1049E0002437BD4680BC704780B483B000AF786088
:1049F000396002E07B6801337B607B681B78002BA9
:104A000005D07B681B781A463B689342F2D17B68DD
:104A10001B7818460C37BD4680BC70472DE9B04363
:104A200088B002AF78600023FB727B6803F5805387
:104A30001B79002B56D07B6803F582531033D3E9E2
:104A40000023C7E904237B6803F58053587879680D
:104A500001230093D7E9042311F0D8FD0346002B6E
:104A600002D00123FB723DE07B6803F580530022F6
:104A70001A717B6803F5825353E90223D7E90401D5
:104A8000841A61EB03057B6803F58153103353E906
:104A90000223944275EB030324D27B6803F5805311
:104AA000DB78FB601BE07B6803F58153103353E92F
:104AB0000223D7E9040110EB020841EB0309C7E91F
:104AC00004897B6803F58053587879680123009343
:104AD000D7E9042311F09AFDFB68013BFB60FB68FA
:104AE000012BE0D8FB7A18461837BD46BDE8B083E5
:104AF00080B588B002AFF860C7E900230023FB75DA
:104B0000FB6803F582531033D3E90023D7E9000192
:104B1000994208BF904226D0F868FFF77FFF03460E
:104B2000FB75FB7D002B1ED1FB6803F58053587885
:104B3000F96801230093D7E9002311F045FD0346EE
:104B4000002B07D04FF0FF324FF00003C7E90023DE
:104B50000123FB75FB6803F5825310331946D7E92F
:104B60000023C1E90023FB7D18461837BD4680BDF0
:104B7000B0B586B002AF78607868FFF74FFF0346A4
:104B8000FB73FB7B002B40F0DE807B6803F58053DA
:104B90001B78032B40F0C9807B6803F580535B7959
:104BA000012B40F0C28078687B6803F580535B89F5
:104BB0001A460021FFF7D8FE7B68552283F8FE21B4
:104BC0007B68AA2283F8FF217B6852221A707B68D7
:104BD00052225A707B6861229A707B684122DA7097
:104BE0007B68722283F8E4217B68722283F8E521D6
:104BF0007B68412283F8E6217B68612283F8E72104
:104C00007B6803F5815353E90223D2B27B6883F8B2
:104C1000E8217B6803F5815353E9022393B21B0A11
:104C20009BB2DAB27B6883F8E9217B6803F5815394
:104C300053E902014FF000024FF00003020C42EA78
:104C400001420B0CD2B27B6883F8EA217B6803F542
:104C5000815353E902014FF000024FF00003020EAE
:104C600042EA01220B0ED2B27B6883F8EB217B680B
:104C700003F580531033D3E90023D2B27B6883F865
:104C8000EC217B6803F580531033D3E9002393B202
:104C90001B0A9BB2DAB27B6883F8ED217B6803F5CF
:104CA00080531033D3E900014FF000024FF00003AE
:104CB000020C42EA01420B0CD2B27B6883F8EE216F
:104CC0007B6803F580531033D3E900014FF00002F5
:104CD0004FF00003020E42EA01220B0ED2B27B68B3
:104CE00083F8EF217B6803F581531033D3E9002368
:104CF000541C43F100057B6803F582531033C3E96C
:104D000000457B6803F58053587879687B6803F524
:104D100082531033D3E900230124009411F076FC70
:104D20007B6803F5805300225A717B6803F580533A
:104D30005B7800220021184611F08AFC0346002B04
:104D400001D00123FB73FB7B18461037BD46B0BD75
:104D50002DE9B00F89B000AFF861C7E90423D7E9A6
:104D60000423911E396043F1FF337B60D7E90023B0
:104D7000C7E90423FB6903F58153D3E90023B2F1AA
:104D8000020843F1FF39D7E90423424573EB0903D5
:104D900006D34FF000034FF00004C7E902341EE0D1
:104DA000FB6903F580539B78DBB200229A46934659
:104DB0003B690BFB03F27B690AFB03F313443A697B
:104DC000A2FB0A452B441D46FB6903F582531033B1
:104DD00053E90223A118B96045EB0303FB60D7E94F
:104DE0000223104619462437BD46BDE8B00F704770
:104DF0002DE9B04FB4B000AFC7F8B400C7E92A231B
:104E0000D7E92A23022A73F100030AD3D7F8B43072
:104E100003F58153D3E90001D7E92A2382428B416C
:104E200006D34FF001024FF00003C7E93223C7E178
:104E30004FF0FF324FF00003C7E93223D7F8B43008
:104E400003F580531B78032B00F00A81032B00F33A
:104E5000A981012B03D0022B00F0AB80A2E1D7F88F
:104E6000A830C7F8C030D7F8C0305A08D7F8C030DB
:104E70001344C7F8C030D7F8B43003F5825353E970
:104E80000201D7F8B43003F580535B891A46D7F88E
:104E9000C030B3FBF2F30022C7F8A030C7F8A4205B
:104EA000D7E928894346C318C7F898304B4641EBE9
:104EB0000303C7F89C30D7E92623D7F8B400FFF7DF
:104EC00017FE0346002B40F07481D7F8C0305A1CFF
:104ED000C7F8C020D7F8B42002F580525289B3FB3E
:104EE000F2F101FB02F29B1AD7F8B420D35CC7F8A9
:104EF000BC30D7F8B43003F5825353E90223D7F816
:104F0000B41001F5805149890846D7F8C010B1FBAB
:104F1000F0F10020C7F89010C7F89400D7E9248971
:104F200041465118C7F88810494643EB0101C7F8BC
:104F30008C10D7E92223D7F8B400FFF7D9FD034638
:104F4000002B40F03881D7F8B43003F580535B89EB
:104F50001A46D7F8C030B3FBF2F101FB02F29B1AFC
:104F6000D7F8B420D35C1B021A46D7F8BC301343E1
:104F7000C7F8BC30D7E92A2302F00104002554EA1F
:104F8000050306D0D7F8BC301B0900229A46934689
:104F90000CE0D7F8BC300022C7F88030C7F8842076
:104FA000D7F88030C3F30B0A4FF0000BC7E932ABE0
:104FB00006E1D7F8B43003F5825353E90245D7F838
:104FC000B43003F580535B895B089BB29BB200222F
:104FD000BB67FA67D7E91E23D7E92A01FCF7DAF89D
:104FE00002460B4614EB020845EB030942464B46CA
:104FF000D7F8B400FFF77CFD0346002B40F0DD80BE
:10500000D7E92A23911839615B417B61D7E9040113
:10501000D7F8B43003F580535B899BB200223B671D
:105020007A67D7E91C23FCF7B5F8D7F8B4108B18CA
:10503000C7F8C430D7F8C43001331B781B021AB24A
:10504000D7F8C4301B781BB213431BB29BB29BB280
:105050000022BB60FA60D7E90234C7E93234AFE01E
:10506000D7F8B43003F5825353E90245D7F8B4308A
:1050700003F580535B899B089BB29BB20022BB6601
:10508000FA66D7E91A23D7E92A01FCF783F8024622
:105090000B46A118396645EB03037B66D7E9182355
:1050A000D7F8B400FFF724FD0346002B40F08780BB
:1050B000D7E92A234FF000004FF00001990041EAA0
:1050C00092719000D7F8B43003F580535B899BB29E
:1050D0000022BB65FA65D7E91623FCF75BF8D7F821
:1050E000B4108B18C7F8C430D7F8C43003331B781A
:1050F000DBB200223B657A65D7E914120B461B0A26
:10510000FB640B461B06BB64D7F8C43002331B7824
:10511000DBB200223B647A644FF000024FF00003E0
:10512000D7E9104529460B0420462946044643EAA0
:10513000144301460A04D7E9120104461443BC6330
:105140001943F963D7F8C43001331B781B02DA170F
:105150003B637A63D7E90E341846D7E90C120D4643
:105160002843B86223461343FB62D7F8C4301B7848
:10517000DBB200223B627A62D7E90A341846D7E9EB
:1051800008120D462843B86123461343FB61BB69EF
:1051900023F070433B6000237B60D7E90034C7E90C
:1051A00032340DE04FF001024FF00003C7E9322323
:1051B00006E000BF04E000BF02E000BF00E000BF67
:1051C000D7E9322310461946D037BD46BDE8B08F27
:1051D0002DE9B04FB0B000AFC7F8AC00C7E9282345
:1051E000D7E92823022A73F100030AD3D7F8AC3099
:1051F00003F58153D3E90001D7E9282382428B418B
:1052000003D3022387F8BF303DE2D7F8AC3003F573
:1052100080531B78032B00F04A81032B00F3288274
:10522000012B03D0022B00F0E88021E2D7F8A03058
:10523000C7F8B430D7F8B4305B08D7F8B4201344BB
:10524000C7F8B430D7F8AC3003F5825353E9020104
:10525000D7F8AC3003F580535B891A46D7F8B430E1
:10526000B3FBF2F30022C7F89830C7F89C20D7E9C7
:1052700026AB5346C318C7F890305B4641EB030397
:10528000C7F89430D7E92423D7F8AC00FFF730FCF7
:10529000034687F8BF3097F8BF30002B40F0EC8111
:1052A000D7F8B4305A1CC7F8B420D7F8AC2002F5B0
:1052B00080525289B3FBF2F101FB02F29B1AD7F83C
:1052C000AC201344C7F8B830D7E9282302F001080E
:1052D0004FF0000958EA09030ED0D7F8B8301B7810
:1052E0005BB203F00F035AB297F8E0301B015BB2D8
:1052F00013435BB2DBB201E097F8E030D7F8B82097
:105300001370D7F8AC3003F5805301221A71D7F827
:10531000AC3003F5825353E90223D7F8AC1001F502
:10532000805149890846D7F8B410B1FBF0F100204C
:10533000C7F88810C7F88C00D7E922894146511870
:10534000C7F88010494643EB0101C7F88410D7E93C
:105350002023D7F8AC00FFF7CBFB034687F8BF301C
:1053600097F8BF30002B40F08981D7F8AC3003F5B7
:1053700080535B891A46D7F8B430B3FBF2F101FBD6
:1053800002F29B1AD7F8AC201344C7F8B830D7E91B
:10539000282302F00104002554EA05030BD0D7E9C5
:1053A00038014FF000024FF00003020942EA017297
:1053B0000B09D3B217E0D7F8B8301B785BB223F0F3
:1053C0000F035CB2D7E938014FF000024FF0000341
:1053D000020A42EA01620B0A53B203F00F035BB206
:1053E00023435BB2DBB2D7F8B8201370D7F8AC30E8
:1053F00003F5805301221A7145E1D7F8AC3003F56B
:10540000825353E90245D7F8AC3003F580535B89EA
:105410005B089BB29BB20022BB67FA67D7E91E23E9
:10542000D7E92801FBF7B6FE02460B4614EB020A49
:1054300045EB030B52465B46D7F8AC00FFF758FB31
:10544000034687F8BF3097F8BF30002B40F0188133
:10545000D7E928239118B9605B41FB60D7E90201C5
:10546000D7F8AC3003F580535B899BB200223B67D1
:105470007A67D7E91C23FBF78DFED7F8AC108B18A1
:10548000C7F8B83097F8E020D7F8B8301A70B7F8F6
:10549000E0301B0A9AB2D7F8B8300133D2B21A7092
:1054A000D7F8AC3003F5805301221A71EBE0D7F83E
:1054B000AC3003F5825353E90245D7F8AC3003F51D
:1054C00080535B899B089BB29BB20022BB66FA6645
:1054D000D7E91A23D7E92801FBF75CFE02460B4601
:1054E000A118396645EB03037B66D7E91823D7F883
:1054F000AC00FFF7FDFA034687F8BF3097F8BF30DE
:10550000002B40F0BF80D7E928234FF000004FF078
:105510000001990041EA92719000D7F8AC3003F590
:1055200080535B899BB20022BB65FA65D7E91623DD
:10553000FBF730FED7F8AC108B18C7F8B830D7F8A7
:10554000B83003331B78DBB200223B657A65D7E9BC
:1055500014120B461B0AFB640B461B06BB64D7F8F0
:10556000B83002331B78DBB200223B647A644FF020
:1055700000024FF00003D7E9104529460B042046EE
:105580002946044643EA144301460A04D7E91201B6
:1055900004461443BC631943F963D7F8B8300133A8
:1055A0001B781B02DA173B637A63D7E90E3418467F
:1055B000D7E90C120D462843B86223461343FB6219
:1055C000D7F8B8301B78DBB200223B627A62D7E9A9
:1055D0000A341846D7E908120D462843B861234615
:1055E0001343FB61BB6903F070433B6100237B61A4
:1055F000D7E93823D7E90401044614433C60194332
:105600007960D7E90034C7E9383497F8E020D7F853
:10561000B8301A70B7F8E0301B0A9AB2D7F8B83031
:105620000133D2B21A70D7E938014FF000024FF0BF
:105630000003020C42EA01420B0CD7F8B810023109
:10564000D3B20B70D7E938014FF000024FF00003DE
:10565000020E42EA01220B0ED7F8B8100331D3B282
:105660000B70D7F8AC3003F5805301221A710AE0B1
:10567000022387F8BF3006E000BF04E000BF02E06D
:1056800000BF00E000BF97F8BF301846C037BD46E6
:10569000BDE8B08FB0B58AB002AFF860C7E90023AB
:1056A000D7E90023022A73F100030AD3FB6803F54C
:1056B0008153D3E90023D7E90001904271EB030342
:1056C00002D30223FB7760E00023FB774EE0D7E9AB
:1056D0000023F868FFF78CFBC7E90401D7E904232E
:1056E00013434FD0D7E90423511E0B4302D10223A9
:1056F000FB774AE0D7E90423511C0B4302D1012375
:10570000FB7742E04FF000024FF00003CDE90023A9
:10571000D7E90023F868FFF75BFD0346FB77FB7FC3
:10572000002B31D1FB6803F5815353E90223511C4F
:105730000B4317D0FB6803F5815353E90223541C34
:1057400043F10005FB6803F5815343E90245FB681B
:1057500003F580535B7943F00103DAB2FB6803F58C
:1057600080535A71D7E90423C7E90023FB6803F586
:105770008153D3E90023D7E90001904271EB030381
:10578000A5D302E000BF00E000BFFB7F1846203732
:10579000BD46B0BD2DE9B0438EB002AFF860C7E999
:1057A0000023D7E9002313431DD1FB6803F5805381
:1057B0001033D3E90023C7E90823D7E908231343AB
:1057C0000AD0FB6803F58153D3E90023D7E9080128
:1057D000904271EB030332D34FF001024FF000030C
:1057E000C7E908232BE0D7E90023F868FFF700FB9F
:1057F000C7E90401D7E90423022A73F1000304D2A4
:105800004FF001024FF00003C5E0D7E90423511C1B
:105810000B4302D1D7E90423BDE0FB6803F58153B4
:10582000D3E90023D7E90401904271EB030302D2CC
:10583000D7E90423AFE0D7E90023C7E90823D7E974
:105840000823C7E90A23D7E90A2312F1010843F123
:105850000009C7E90A89FB6803F58153D3E90023EE
:10586000D7E90A01904271EB030312D34FF0020211
:105870004FF00003C7E90A23D7E90A23D7E9080153
:10588000904271EB030304D24FF000024FF000038B
:1058900081E0D7E90A23F868FFF7AAFAC7E904010B
:1058A000D7E90423134319D0D7E90423511C0B4330
:1058B00004D0D7E90423511E0B4302D1D7E90423B6
:1058C00069E0D7E90A01D7E90823994208BF904265
:1058D000B9D14FF000024FF000035CE000BF6FF061
:1058E00070424FF00003CDE90023D7E90A23F8689E
:1058F000FFF76EFC0346FB77FB7F002B0ED1D7E949
:10590000002313430AD0D7E90A23CDE90023D7E9BE
:105910000023F868FFF75CFC0346FB77FB7F002B56
:1059200029D1FB6803F5805310331946D7E90A23C0
:10593000C1E90023FB6803F5815353E90223511C9D
:105940000B4326D0FB6803F5815353E90223541E11
:1059500043F1FF35FB6803F5815343E90245FB68DA
:1059600003F580535B7943F00103DAB2FB6803F57A
:1059700080535A710DE0FB7F012B04D14FF0FF32B1
:105980004FF0000303E04FF001024FF00003C7E9BE
:105990000A23D7E90A23104619463037BD46BDE829
:1059A000B0832DE9B04F8CB000AF7861C7E9022316
:1059B0007B6903F58053DB6B08337B627B6903F5FE
:1059C00080531B6803F580535B899BB200223B60C8
:1059D0007A60D7E90023D7E90201FBF7DBFB024637
:1059E0000B46104619467B6903F580531B6803F587
:1059F00080539B78DBB200229A46934652465B4620
:105A0000FBF7C8FB02460B46C7E90A237B6A03F192
:105A100008027A62D3E90023C7E90623D7E90623FF
:105A2000134304D14FF000044FF000051EE0D7E906
:105A30000A01D7E90623904271EB03030DD3D7E99E
:105A40000A01D7E90623B0EB020861EB0309C7E9B5
:105A50000A897B6A08337B62D8E700BF7B6AD3E997
:105A60000001D7E90A23841841EB030522462B469F
:105A7000104619463037BD46BDE8B08F2DE9B0431A
:105A800088B000AF786039603B689AB27B6803F5F4
:105A90008053DA807B6803F58053103353E9022387
:105AA000C7E90623D7E90623511E0B430DD07B68B7
:105AB00003F580531B6803F58153D3E90023D7E92D
:105AC0000601904271EB030301D30223C8E0D7E93A
:105AD0000623134312D17B6803F580531B6803F53B
:105AE00080531B78032B09D17B6803F580531B6817
